:100000001CC400004BC4000049C4000047C40000E9
:1000100045C4000043C4000041C400003FC40000C8
:100020003DC400003BC4000039C4000037C40000D8
:1000300035C4000033C4000031C400002FC40000E8
:100040002DC400002BC4000029C4000027C40000F8
:1000500025C4000023C4000021C400000C9414191E
:100060001DC400000C9498170C94CE1717C4000000
:1000700015C4000013C4000011C400000FC4000028
:100080000DC400000BC4000009C4000007C4000038
:1000900005C4000003C4000001C400000C94A712B2
:1000A000FDC30000FBC30000F9C30000F7C300005C
:1000B000F5C30000F3C30000F1C30000EFC300006C
:1000C000EDC30000EBC30000E9C30000E7C300007C
:1000D000E5C30000E3C30000E1C30000DFC300008C
:1000E000DDC300004F1A521A411A451A4B1A891AD9
:1000F000561A5A1A601A641A681A6E1A721A761AFE
:10010000891A7C1A801A841A00407A10F35A00A0C7
:10011000724E18090010A5D4E80000E876481700D0
:1001200000E40B54020000CA9A3B000000E1F50510
:10013000000080969800000040420F000000A0865A
:1001400001000000102700000000E803000000008C
:100150006400000000000A00000000000100000030
:1001600000002C76D888DC674F0823DFC1DFAE594A
:10017000E1B1B796E5E3E453C63AE651997696E8DD
:10018000E6C28426EB898C9B62ED407C6FFCEFBC61
:100190009C9F40F2BAA56FA5F490055A2AF75C938C
:1001A0006B6CF9676DC11BFCE0E40D47FEF520E6C2
:1001B000B500D0ED902E0300943577050080841EA5
:1001C000080000204E0A000000C80C333333330F00
:1001D000986E12831141EF8D2114893BE65516CF9D
:1001E000FEE6DB18D1844B381BF77C1D901DA4BBA9
:1001F000E424203284725E228100C9F124ECA1E55E
:100200003D2700000000003E5B4F5B3E3E6B4F6BA6
:100210003E1C3E7C3E1C183C7E3C181C577D571CE7
:100220001C5E7F5E1C00183C1800FFE7C3E7FF0060
:1002300018241800FFE7DBE7FF30483A060E2629AE
:10024000792926407F050507407F05253F5A3CE771
:100250003C5A7F3E1C1C08081C1C3E7F14227F2237
:10026000145F5F005F5F06097F017F006689956A02
:10027000606060606094A2FFA29408047E0408108D
:10028000207E201008082A1C08081C2A08081E10B6
:100290001010100C1E0C1E0C30383E3830060E3E6E
:1002A0000E06000000000000005F000000070007CD
:1002B00000147F147F14242A7F2A122313086462F7
:1002C00036495620500008070300001C2241000058
:1002D00041221C002A1C7F1C2A08083E08080080B6
:1002E000703000080808080800006060002010084E
:1002F00004023E5149453E00427F4000724949494F
:10030000462141494D331814127F10274545453980
:100310003C4A494931412111090736494949364684
:100320004949291E00001400000040340000000864
:100330001422411414141414004122140802015907
:1003400009063E415D594E7C1211127C7F49494994
:10035000363E414141227F4141413E7F4949494129
:100360007F090909013E414151737F0808087F0058
:10037000417F41002040413F017F081422417F40DE
:100380004040407F021C027F7F0408107F3E4141B5
:10039000413E7F090909063E4151215E7F09192925
:1003A00046264949493203017F01033F4040403F0F
:1003B0001F2040201F3F4038403F63140814630350
:1003C000047804036159494D43007F4141410204CF
:1003D000081020004141417F0402010204404040D6
:1003E0004040000307080020545478407F284444CC
:1003F000383844444428384444287F3854545418E6
:1004000000087E090218A4A49C787F0804047800E0
:10041000447D40002040403D007F102844000041C2
:100420007F40007C047804787C08040478384444D5
:100430004438FC1824241818242418FC7C080404CC
:1004400008485454542404043F44243C4040207C35
:100450001C2040201C3C4030403C44281028444C88
:100460009090907C4464544C440008364100000055
:10047000770000004136080002010204023C2623F6
:10048000263C1EA1A161123A4040207A38545455AE
:100490005921555579412254547842215554784078
:1004A00020545579400C1E52721239555555593900
:1004B0005454545939555454580000457C41000255
:1004C000457D420001457C407D1211127DF02825BA
:1004D00028F07C545545002054547C547C0A097FF4
:1004E0004932494949323A4444443A324A48483008
:1004F0003A4141217A3A42402078009DA0A07D3DBA
:100500004242423D3D4040403D3C24FF2424487E41
:100510004943662B2FFC2F2BFF0929F620C0887E2C
:10052000090320545479410000447D413048484A31
:1005300032384040227A007A0A0A727D0D19317DE4
:100540002629292F28262929292630484D402038B8
:100550000808080808080808382F10C8ACBA2F1077
:100560002834FA00007B000008142A142222142ADE
:1005700014085500550055AA55AA55AAFF55FF5510
:10058000FF000000FF00101010FF00141414FF0003
:100590001010FF00FF1010F010F0141414FC0014E1
:1005A00014F700FF0000FF00FF1414F404FC1414FF
:1005B00017101F10101F101F1414141F00101010FC
:1005C000F0000000001F101010101F10101010F08D
:1005D00010000000FF101010101010101010FF106D
:1005E000000000FF140000FF00FF00001F101700B4
:1005F00000FC04F414141710171414F404F400008D
:10060000FF00F714141414141414F700F71414143E
:10061000171410101F101F141414F4141010F010DD
:10062000F000001F101F0000001F14000000FC1449
:100630000000F010F01010FF10FF141414FF14103D
:1006400010101F00000000F010FFFFFFFFFFF0F090
:10065000F0F0F0FFFFFF0000000000FFFF0F0F0FA2
:100660000F0F3844443844FC4A4A4A347E0202069A
:1006700006027E027E0263554941633844443C04CD
:10068000407E201E2006027E020299A5E7A5991C45
:100690002A492A1C4C7201724C304A4D4D30304868
:1006A000784830BC625A463D3E494949007E0101C6
:1006B000017E2A2A2A2A2A44445F444440514A445B
:1006C0004040444A51400000FF0103E080FF000029
:1006D00008086B6B083612362436060F090F060021
:1006E0000018180000001010003040FF0101001F2A
:1006F00001011E00191D1712003C3C3C3C0000008B
:100700000000000103070F1F3F7F0080C0E0F0F8EA
:10071000FCFE00000A0B02090C0D0E080703040181
:1007200000000000000000000000000000000000C9
:100730000000000000000000000000000000121196
:100740001000000000000000000000000000000099
:100750000000000000000000010210202008081026
:100760002040102040800201020108040201010221
:1007700004081020408080402010080402018004FA
:100780000201804020100804020108040201010255
:100790000408102040800102040810204080050554
:1007A0000505070508080808020202020A0A0808E7
:1007B0000404040401010101010101010303030315
:1007C00003030303040707070C0C0C0C0C0C0C0CA4
:1007D0000202020206060606060606060B0B0B0BB5
:1007E0000B0B0B0B000020002300260029002C001F
:1007F0002F00320000010000030106010901000082
:100800002200250028002B002E00310034000201B8
:100810000000050108010B01000021002400270051
:100820002A002D00300033000101000004010701FF
:100830000A013B05D21400186A0511241FBECFEF30
:10084000D1E2DEBFCDBF00E00CBF14E0A0E0B2E01B
:10085000E8ECF1E400E00BBF02C007900D92A43E6B
:10086000B107D9F726E0A4EEB4E001C01D92AE3A7C
:10087000B207E1F714E0CCE1D4E000E006C0219734
:100880000109802FFE010E94491CC931D10780E077
:100890000807A9F70E942E180C94D320B1CB26E0AC
:1008A00040E855E260E070E084E096E00E94351791
:1008B0008EEA95E00E94A11467E384EE94E00C9424
:1008C000E10E0F931F93CF936DED73E084E096E0FC
:1008D0000E949B1800E010E0C1E06C2F8EEA95E0CA
:1008E0000E94B3148EEA95E00E94D01481111EC0BC
:1008F00069EE73E084E096E00E948718C03130F41E
:1009000068E074E084E096E00E94871840E150E0DF
:100910006C2F84E096E00E94FE186AE074E084E0A8
:1009200096E00E949B180F5F1F4F17C08430A9F4F8
:100930006EE074E084E096E00E948718C03130F4E5
:1009400068E074E084E096E00E94871840E150E09F
:100950006C2F84E096E00E940419CF5FCF3709F036
:10096000BCCF012B19F46AE274E002C060E474E0C9
:1009700084E096E00E949B1868E873E180E090E0D4
:10098000CF911F910F910C948F19CF93DF93CDB717
:10099000DEB768970FB6F894DEBF0FBECDBF60E03C
:1009A00084EE94E00E94BA10AB01BC0122E0CE01BB
:1009B00001960E94A41B40E060E084EE94E00E9457
:1009C0003310AB01BC0122E0CE010D960E94A41BA6
:1009D00066E474E0CE0107960E945E1BBE01635F71
:1009E0007F4FCE0107960E94FE1B6EE474E00E94CA
:1009F0000F1CBE016F5F7F4F0E94FE1BBC01CE012A
:100A000043960E94871BCE0107960E94F41ACE01DE
:100A10000D960E94F41ACE0101960E94F41A51DF3D
:100A200064E070E08EEA95E00E94BD14BE016D5E48
:100A30007F4F8EEA95E00E9479188EEA95E00E9439
:100A4000D014BE016D5E7F4F84E096E00E948B184B
:100A500068EE73E080E090E00E948F19CE0143962B
:100A60000E94F41A68960FB6F894DEBF0FBECDBF91
:100A7000DF91CF9108958F929F92AF92BF92CF92C4
:100A8000DF92EF92FF920F9380EA882E86E8982EED
:100A9000AA24A394B12C90E8C92E9AE1D92E96E00D
:100AA000E92EF12C04E02EEA35E040E460E887EF1F
:100AB00094E0CAD626E04BE062E084EE94E00F9129
:100AC000FF90EF90DF90CF90BF90AF909F908F906E
:100AD0000C94C00E87EF94E001C7209139052223C2
:100AE00099F04FB7F89420913905213059F42DB37E
:100AF000209337053DB320913805209523232DBB46
:100B00004FBF02C0409337058CBD9DBD08958091B5
:100B10003905882361F09FB7F894209139058091B9
:100B20003705213019F48DBB9FBF08958FBF0895FD
:100B300080E090E0089508952F923F924F925F9247
:100B40006F927F928F929F92AF92BF92CF92DF92DD
:100B5000EF92FF920F931F93CF93DF9300D000D0BB
:100B6000CDB7DEB72C017E836D836A015901C801C0
:100B7000FC82EB824801841A950A97FE03C0919487
:100B80008194910835012D813E81621A730A77FEA6
:100B900003C0719461947108681479045CF43A2D6F
:100BA0002B2D5C01832F922F3D812E81DE82CD8201
:100BB000C32ED22EAD81BE81AA16BB065CF43C2D9D
:100BC0002D2D6C01832F922F3D812E81BE82AD820F
:100BD000A32EB22E85012D813E81021B130B1C0119
:100BE0002C183D0837FE03C0319421943108780158
:100BF00017FF03C03FEFE31AF30AF594E794C81612
:100C0000D9062CF08FEF9FEF9A83898304C0A1E06F
:100C1000B0E0BA83A9832D813E81A216B30624F1E8
:100C2000D201ED91FC910484F585E02D2B813C816E
:100C30006814790424F44D815E81B60103C0A601D5
:100C40006D817E81C2011995E218F308F7FE06C096
:100C500029813A81C20ED31EE00EF11E8D819E8144
:100C600001969E838D83D7CF26960FB6F894DEBF6C
:100C70000FBECDBFDF91CF911F910F91FF90EF90ED
:100C8000DF90CF90BF90AF909F908F907F906F90AC
:100C90005F904F903F902F900895DC01ED91FC9173
:100CA0000084F185E02D19940F931F93DC01ED91E1
:100CB000FC91048CF58DE02D19951F910F910895ED
:100CC0000F931F93DC01ED91FC91068CF78DE02DC5
:100CD00019951F910F910895EF92FF920F931F9313
:100CE000DC01ED91FC9100A0F1A1E02D19951F917F
:100CF0000F91FF90EF90089508958F929F92AF9279
:100D0000BF92CF92DF92EF92FF920F931F93CF93F8
:100D1000DF93EC015B014A0169017801E881F98107
:100D20000284F385E02D1995C80CD91C8601015069
:100D30001109E881F9810488F589E02D9501A40164
:100D4000B501CE011995E881F9810688F789E02D72
:100D5000CE01DF91CF911F910F91FF90EF90DF9027
:100D6000CF90BF90AF909F908F9019948F929F9249
:100D7000AF92BF92CF92DF92EF92FF920F931F93A9
:100D8000CF93DF93EC015B014A016901E881F981AE
:100D90000284F385E02D199595012C0D3D1D215000
:100DA0003109E881F9810488F589E02D7801840111
:100DB000A401B501CE011995E881F9810688F7896A
:100DC000E02DCE01DF91CF911F910F91FF90EF9019
:100DD000DF90CF90BF90AF909F908F9019944F92DB
:100DE0005F926F927F928F929F92AF92BF92CF92BB
:100DF000DF92EF92FF920F931F93CF93DF936C01DB
:100E00002B015A0139014801DC01ED91FC9102846A
:100E1000F385E02D1995E201640C751CD601ED9166
:100E2000FC91C615D7055CF40088F189E02D870197
:100E30009401A501BE01C60119952196EFCF068840
:100E4000F789E02DC601DF91CF911F910F91FF909F
:100E5000EF90DF90CF90BF90AF909F908F907F905A
:100E60006F905F904F901994EF92FF920F931F93A2
:100E7000DC011A960D911C911B9718962D913C91AF
:100E80001997ED91FC9100A0F1A1E02D7B0140E0CC
:100E900050E060E070E019951F910F91FF90EF9086
:100EA00008958F929F92AF92BF92CF92DF92EF926E
:100EB000FF920F931F93CF93DF934C016B015A0165
:100EC000E901DC01ED91FC916217730781F40417CD
:100ED000150724F48B2D5801042F182F0A191B090C
:100EE00098012F5F3F4F048CF58DE02D12C0401705
:100EF000510709F52617370724F48D2D6901C62FF0
:100F0000D82F9E012C193D092F5F3F4F068CF78D7E
:100F1000E02D8701A501B601C4011995DF91CF919C
:100F20001F910F91FF90EF90DF90CF90BF90AF9007
:100F30009F908F9008950284F385E02D1995D40138
:100F4000ED91FC910488F589E02D9E01A501B60183
:100F5000C4011995D401ED91FC910688F789E02D23
:100F6000C401DF91CF911F910F91FF90EF90DF901F
:100F7000CF90BF90AF909F908F9019946F927F9277
:100F80008F929F92AF92BF92CF92DF92EF92FF9299
:100F90000F931F93CF93DF93EC014B015A0169012B
:100FA0003801E881F9810284F385E02D1995E88103
:100FB000F9810288F389E02D87019601A501B4012A
:100FC000CE011995A501460D571D41505109E881E3
:100FD000F9810288F389E02D9601B401CE011995BB
:100FE000E881F9810088F189E02D9301A501B40120
:100FF000CE011995C80CD91CB60161507109E88160
:10100000F9810088F189E02D9301A501CE011995A0
:10101000E881F9810688F789E02DCE01DF91CF9133
:101020001F910F91FF90EF90DF90CF90BF90AF9006
:101030009F908F907F906F9019940895FC0163703A
:10104000668B8481958126813781613039F06330E8
:1010500029F09187808733872287089531872087F9
:10106000938782870895FC01138212828DE594E0B4
:1010700091838083758364835783468371876087F8
:1010800053874287168A158614861786168681E04E
:10109000858B848B2FEF3FEF338B228B318B208B13
:1010A000878B108E128E118E08952F923F924F9241
:1010B0005F926F927F928F929F92AF92BF92CF92E8
:1010C000DF92EF92FF920F931F93CF93DF93CDB7F1
:1010D000DEB76B970FB6F894DEBF0FBECDBF9B8F08
:1010E0008A8F2B015A834983D22E1987088747019B
:1010F000AB82DC0159962D913C915A97211531050F
:1011000009F000C118968D919C911997681779077D
:101110000CF0E7C11A968D919C911B9748175907BF
:101120000CF0DFC12C2C312CFB0126E0C29EE00D1F
:10113000F11D1124FD87EC871E161F060CF0D1C18E
:101140004A2D50E05B874A8783E0440F551F8A95FC
:10115000E1F75F874E8789819A81840F951F181662
:1011600019060CF0BEC158968C91811104C06FEA2B
:101170006D1508F4D394AA8DBB8DED91FC91119758
:101180000284F385E02DCD011995B5E0DB9EC00109
:101190001124EC2DF0E0F98BE88B92012B5F3F4F8F
:1011A0003B8B2A8B32015D824C82AC01441955097C
:1011B0005D8B4C8B7B81672F70E07F8B6E8B898181
:1011C0009A810896998F888FEC89FD89E60DF71D25
:1011D000EE5FFD4FD490A981BA81BF83AE835D01DC
:1011E000D0FE16C0AA8DBB8DED91FC91B1E0CB1263
:1011F00009C02B81213031F40484F585E02D288548
:10120000398519C00684F785E02DE884F9841DC06E
:10121000488559854815590511F1AA8DBB8DED9169
:10122000FC91B1E0CB120DC02B81213051F404842C
:10123000F585E02D9401A501B3018A8D9B8D19954B
:101240000EC00684F785E02D74010A851B85910187
:101250004E815F816C817D818A8D9B8D1995D6949D
:101260004E815F816E897F89460F571F5F834E8352
:101270007FEFA71AB70A888D998DA816B90609F0CD
:10128000AFCFAC81BD81E889F989AE0FBF1FBD83A7
:10129000AC83FFEF6F1A7F0A2A893B8962167306B7
:1012A00009F092CF488559854815590509F4F7C0CA
:1012B000AA8DBB8DED91FC91B1E0CB1212C02B81B8
:1012C000213079F4B2016B5F7F4F0088F189E02D06
:1012D000840128E030E049815A818A8D9B8D1995DF
:1012E000DEC06C857D85621973090684F785E02D63
:1012F00074010E851F85910149815A818A8D9B8DCC
:101300001995CDC0F9013496E491DE1AF9013296AF
:1013100085919491B7E0DB9E800D911D1124F90118
:1013200025913491398B288BFC0125903490FC0158
:10133000329674903196A490329694903196B490EF
:1013400031E03C1518F04B81423068F0692D092CD2
:10135000000C770B7D836C838B2D0B2C000C990B71
:101360009F838E8304C01F821E821D821C82AA8DD1
:10137000BB8DED91FC9111970284F385E02DCD0199
:101380001995612CD12C812CFB81EF2FF0E0FB878C
:10139000EA872C2D30E03D872C8749815A814B0DFF
:1013A000511DB7FC5A955D8B4C8BB201690D711DB7
:1013B00097FC7A957F8B6E8B8A1408F070C0282D6D
:1013C00030E04E815F81420F531FAA85BB85A49FE9
:1013D000C001A59F900DB49F900D1124E981FA8161
:1013E000E80FF91FFF87EE87862D912C4C895D89C8
:1013F000420F531F5B8B4A8B971408F04DC0BB24E0
:10140000B394B80E877041F4C1010196E889F98957
:10141000E20DF31DD4901C01D7FE3AC051E0C51275
:1014200016C06B81613099F4AA8DBB8DED91FC9152
:1014300011970484F585E02D288539854A895B89D3
:101440006E897F89690D711DCD01199521C08C812F
:101450009D81890D911DEC85FD858E9FB0018F9F2B
:10146000700D9E9F700D1124640D751DAA8DBB8D8E
:10147000ED91FC9111970684F785E02DE884F984BD
:101480000A851B852C853D854E855F85CD01199587
:10149000DD0C93948B2DB0CF670C83948DCFAA8DE8
:1014A000BB8DED91FC9111970688F789E02DCD0158
:1014B0006B960FB6F894DEBF0FBECDBFDF91CF9114
:1014C0001F910F91FF90EF90DF90CF90BF90AF9062
:1014D0009F908F907F906F905F904F903F902F9054
:1014E00019946B960FB6F894DEBF0FBECDBFDF9197
:1014F000CF911F910F91FF90EF90DF90CF90BF9011
:10150000AF909F908F907F906F905F904F903F90A3
:101510002F9008958F929F92AF92CF92EF92FF9269
:101520000F931F93CF93DF93EC01262F898D9A8D14
:10153000009709F041C06A3059F41D861C862D8938
:101540008E859F8538E0239F800D911D112442C018
:101550006D3009F4A8C08F898823C9F03C898C8537
:101560009D8546E0349F800D911D11244885598545
:101570004817590764F41D861C863D898E859F8512
:1015800048E0349F800D911D11249F878E87EA8843
:10159000FB88088919894E855F856C857D85AD88B6
:1015A000CC88CE0182DD2C898C859D8536E0239FF9
:1015B000800D911D11243EC06A3079F41D861C8671
:1015C0002D89FC013896E4918E859F852E9F800D94
:1015D000911D11249F878E8766C06D3009F463C00A
:1015E000FC0134963491631708F45DC03296E4919F
:1015F000E61708F458C0462F431B342FFC013296DF
:101600008590949047E0349F800C911C1124F40144
:10161000329634913196E491332311F0E1110DC0EB
:10162000F4013496E4912C898C859D85E29F800D90
:10163000911D11249D878C8736C0F4013596449105
:101640005F89552319F15C89E32FF0E0E40FF11D68
:1016500047FDFA955E9FB0015F9F700D11244C8588
:101660005D85460F571F688579856417750774F483
:101670001D861C863D89FC013896E4918E859F85E8
:101680003E9F800D911D11249F878E87EA88FB88DD
:10169000088919894E855F856C857D85AD88CC88E4
:1016A000CE0103DDBDCF81E090E0DF91CF911F91AE
:1016B0000F91FF90EF90CF90AF909F908F900895F3
:1016C000FC0177FDB9C080859185681779070CF01A
:1016D000B3C057FDB1C082859385481759070CF0F8
:1016E00008958689823079F484819581DC01A61B76
:1016F000B70BBD016150710986819781DC01A41B84
:10170000B50BAD010EC0833009F084C06427752786
:10171000CA01862797276827792746815781481B62
:10172000590B415051092130310531F048F1223037
:10173000310509F44AC00895CA0157FD07969C0176
:10174000A3E035952795AA95E1F7A481B5812A9F55
:10175000C0012B9F900D3A9F900D1124680F791FA7
:10176000078CF0A1E02DE60FF71F4770552781E0A9
:1017700090E001C0880F4A95EAF79081892B48C014
:10178000CA0157FD07969C0193E0359527959A95D8
:10179000E1F7A481B5812A9FC0012B9F900D3A9F4C
:1017A000900D1124680F791F078CF0A1E02DE60F32
:1017B000F71F4770552781E090E001C0880F4A95D8
:1017C000EAF780959081892323C0CA0157FD0796C7
:1017D0009C0183E0359527958A95E1F7A481B58131
:1017E0002A9FC0012B9F900D3A9F900D1124680FE6
:1017F000791F078CF0A1E02DE60FF71F47705527E2
:1018000081E090E001C0880F4A95EAF7908189272E
:1018100080830895813009F086CF64277527462795
:1018200057276427752784819581DC01A61BB70B98
:10183000BD016150710977CF08958EBD00000DB4D0
:1018400007FEFDCF8EB508954F925F926F927F9203
:101850008F929F92AF92BF92CF92DF92EF92FF92C0
:101860000F93CF93DF93CDB7DEB73C01290150E052
:1018700070E0F9DB89E894E0F30191838083148EB2
:10188000138E4114510411F0C20102C08EEA95E09A
:10189000F301968F858F10A2178E8FEF84A385A3F7
:1018A00086A387A300A7C5AAD6AAE7AAF0AE81AEF1
:1018B00092AEA3AEB4AE80E586AF17AEDF91CF9106
:1018C0000F91FF90EF90DF90CF90BF90AF909F90DF
:1018D0008F907F906F905F904F90089529E834E04B
:1018E000FC0131832083878D90A1009711F00C9427
:1018F000081D08951F93CF93DF93FC01858D968D6E
:10190000009719F1162FEF0161A1062E000C770B3D
:101910000E94BD148D8D9E8DDC01ED91FC91019096
:10192000F081E02D60E019958D8D9E8DDC01ED91AB
:10193000FC910190F081E02D612F19958D8D9E8D88
:10194000DF91CF911F910C94D014A5A5B6A59C91C1
:1019500083A9809589238C93838D948D892B29F07D
:10196000862FDF91CF911F9168CF28E030E080E88B
:10197000A1A5B2A591A9462F482319F04C91942B0B
:1019800003C04C91909594239C93A3A5B4A54C912E
:1019900092A9942B9C93A3A5B4A54C9192A9909540
:1019A00094239C9386952150310911F7DF91CF91B3
:1019B0001F9108951F93CF93DF93EC01162F8D8D08
:1019C0009E8D009731F04DA95EA96FA978ADC8D75B
:1019D0000EC08B8D9C8D892B19F08EAD9FAD7DD85F
:1019E000EFA5F8A990818CA9809589238083111196
:1019F00002C066EA01C067EACE017CDF8D8D9E8D54
:101A0000009741F049AD5AAD6BAD7CADDF91CF9100
:101A10001F91A6C7EFA5F8A990818CA9892B808377
:101A20008B8D9C8D892B21F0DF91CF911F916FC8F9
:101A3000DF91CF911F9108950F931F93CF93DF9361
:101A4000DC0157FD64C016968D919C91179748173D
:101A500059070CF05CC077FF04C0260F371F60E009
:101A600070E01496CD91DC911597CB01820F931FF6
:101A7000C817D9071CF49E01261B370B1216130634
:101A80000CF045C0FA0157FD3796CF01E3E095957C
:101A90008795EA95E1F78C9FF0018D9FF00D9C9F53
:101AA000F00D11246E0F7F1F5F96ED91FC919097C2
:101AB000E60FF71F4770552781E090E001C0880FBF
:101AC0004A95EAF7482F0130110539F078F00230D5
:101AD0001105E9F42E0F3F1F13C02E0F3F1FE21711
:101AE000F307A9F08081842B8193F9CF80952E0F85
:101AF0003F1FE217F30759F0908198239193F9CF94
:101B0000E217F30721F0808184278193F9CFDF91D9
:101B1000CF911F910F910895EF92FF920F931F9312
:101B2000CF93DF93EC0177FDA5C0EC80FD806E15AF
:101B30007F050CF09FC057FF04C0240F351F40E005
:101B400050E08E819F81FA01E20FF31F8E179F07ED
:101B50001CF49C01241B350B121613060CF08AC0D2
:101B6000922F842F8695869586958E9DD0018F9D88
:101B7000B00D11246A0F7B1FAF8DB8A1A60FB71F40
:101B80004770B1F188E0841B482F682F70E0FB019B
:101B9000E65FF84FE491281798F4621B71092FEF64
:101BA00030E002C0359527956A95E2F7E2230130CF
:101BB000110549F078F00230110509F05BC00EC044
:101BC0000130110519F48C91E82B0AC00130110580
:101BD00008F049C0E0958C91E82302C08C91E82779
:101BE000EC93941708F446C02C813D81A20FB31FDB
:101BF000E92FE41BE830F8F00230110561F48E2F74
:101C00009C9190959C932C813D81A20FB31F88508D
:101C10008830B0F70FC081E00115110509F480E0AC
:101C200081959E2F8C932C813D81A20FB31F9850DC
:101C30009830C0F7E770EE23E9F0F0E0EE5FF84F80
:101C4000E4910130110539F048F00230110591F4AA
:101C50008C91E82706C08C91E82B03C0E0958C910D
:101C6000E823EC9307C00230110509F4B7CFAE0D9D
:101C7000BF1DBECFDF91CF911F910F91FF90EF90CD
:101C800008950F931F93DC015696EC915697E2301E
:101C900061F0E33009F1E13079F51496ED91FC91B2
:101CA0001597E41BF50B319723C0DC011496ED91D9
:101CB000FC911597DF01A61BB70BBD01DC01169641
:101CC000ED91FC911797DF01A41BB50BAD014150BD
:101CD0005109621B730B10C0FA01DC0116964D917D
:101CE0005C911797DA01A61BB70BBD01621B730B42
:101CF000AB01BF0111DF01C09FDE1F910F9108955D
:101D00000F931F93DC015696EC915697E23069F0E1
:101D1000E33011F1E13081F51496ED91FC911597C6
:101D2000E41BF50BE21BF30B23C0DC011496ED91D1
:101D3000FC911597DF01A61BB70BBD01615071091E
:101D4000DC011696ED91FC911797DF01A41BB50BF2
:101D5000AD01421B530B10C0FA01DC0116964D91E8
:101D60005C911797DA01A61BB70BBD016150710991
:101D7000AB01BF0161DE01C0CFDE1F910F9108955D
:101D8000DC0115966C93159716964C93169770E098
:101D9000FB01E85AF84FE4911796EC931797FB0173
:101DA000E256F84F649118966C93189740E85EE3FA
:101DB00060E070E01D964D935D936D937C9350971A
:101DC00008951F93CF93DF93EC01162F62E08D816E
:101DD0000E948A1A0E945E19DC01CB01805D974047
:101DE000A109B10989879A87AB87BC871A8BDF91D4
:101DF000CF911F910895CF92DF92EF92FF921F93A0
:101E0000CF93DF93EC011F81662311F0912F01C066
:101E100090E0288530E0220F331F2C51384FA0E08E
:101E2000B0E0F90145915491FA0180818123AD011F
:101E300060E070E098130FC01196CD84DE84EF84CB
:101E4000F8884C155D056E057F0558F33FEF2FEFC1
:101E50008FEF9FEF03C03A2F252FCB01632F722FF7
:101E6000DF91CF911F91FF90EF90DF90CF90089579
:101E70008F929F92AF92BF92CF92DF92EF92FF929A
:101E80000F931F93CF93DF93CDB7DEB7C054D140EC
:101E90000FB6F894DEBF0FBECDBF8C01F62E0E94A8
:101EA0005E19F11016C0F801C184D284E384F48471
:101EB0009B01AC012C193D094E095F0969017A01AA
:101EC00030EDC31637E0D306E104F10410F4818944
:101ED000B6C0F80161877287838794871482138262
:101EE00012821182108262E085810E948A1A61E06A
:101EF00070E080E090E00E948F1961E0F801858138
:101F00000E948A1A60E0F80185810E94C61AF801D1
:101F100086818551823028F48CE494E00E94C819AF
:101F200006C064E170E080E090E00E948F1962E0FA
:101F3000F80185810E948A1AF801828990E00E9446
:101F4000C819F89460E0C80156DF6F3F7F4F8F4F8C
:101F50009F4F21F4F801118A789442C061E0C801D2
:101F60004ADF6F3F7F4F8F4F9F4FA1F39E012F5F3F
:101F70003F4F79015E013FEBA31A3EEFB30A6701C1
:101F800060E0C80138DFF601608371838283938348
:101F900061E0C80130DFF60164837583868397832F
:101FA000F8E0CF0ED11CCA14DB0451F7789420E07E
:101FB00030E0F70180809180A280B3804481558118
:101FC00066817781FFEF8F169F06AF06BF0631F05F
:101FD0004F3F8FEF58076807780721F4F801118AFF
:101FE00080E02DC0F90183E0F595E7958A95E1F74A
:101FF000E00FF11F8081880F84169506A606B706AC
:1020000008F4816080832F5F3F4FF8E0EF0EF11CF2
:102010002832310571F6F801248130E04081818158
:1020200090E0840F911D4281840F911D4381840FA4
:10203000911D99272817390789F681E0818BC05CAB
:10204000DE4F0FB6F894DEBF0FBECDBFDF91CF914C
:102050001F910F91FF90EF90DF90CF90BF90AF90C6
:102060009F908F900895CF92DF92EF92FF920F93FF
:102070001F93CF93DF938C01C62F642FF9DE882343
:1020800009F46BC0F80186818C3009F43EC018F465
:102090008B30B9F062C08551823008F05EC0F80123
:1020A000D2816D2F6F7770E0762F66278381682B42
:1020B00080E090E0DFD42DEC3CEC4CEC5DE368D5A7
:1020C0003DC0F801628170E080E090E0D3D46B0104
:1020D0007C01F801D381D7FF09C09B01AC0160E00E
:1020E00070E080E89FEB61D46B017C016D2F6F7015
:1020F00070E080E090E0C0D42DEC3CEC4CEC5DE373
:1021000047D5A701960152D41BC0F801D281638143
:102110006F7070E080E090E0AFD42DEC3CEC4CECC4
:102120005DE336D56B017C016D2F70E080E090E0BF
:10213000A1D49B01AC01C701B60138D4D7FD90589A
:10214000CC2379F026E636E646EE5FE321D520E0A3
:1021500030E040E052E42AD404C060E070E080EC5B
:102160009FE7DF91CF911F910F91FF90EF90DF904C
:10217000CF900895CF92DF92EF92FF92CF93DF93AB
:10218000EC0176DE882369F18E818B3050F18D3041
:1021900088F08551823028F5688179817627672714
:1021A000762780E090E066D42DEC3CEC4CEC5DE3CF
:1021B000EFD41BC0698170E080E090E05DD42DEC2D
:1021C0003CEC4CEC5DE3E4D46B017C01688170E095
:1021D00080E090E051D49B01AC01C701B601E6D389
:1021E00004C060E070E080EC9FE7DF91CF91FF904A
:1021F000EF90DF90CF9008951092AD0581E080932D
:10220000AB051092AA0561E084E10E94C61A61E064
:1022100085E10E94C61AE9EBF0E080818E7F808321
:1022200080818D7F808388E48093B80085E48093EB
:10223000BC000895ECEBF0E080818A7B808360E055
:1022400084E10E94C61A60E085E10C94C61A9B01E5
:10225000AC0160E074E284EF90E00E94271CDA0198
:10226000C9014097A109B109B695A795979587959A
:102270008093B800089540915C05262F30E0240F2C
:10228000311D21323105DCF42091AD052430C9F433
:10229000FC0180E090E0861758F430915C052191B4
:1022A000DC01A25ABA4FA30FB11D2C930196F3CFB4
:1022B00080915C05680F60935C0580E0089581E083
:1022C000089582E008959093A1058093A005089554
:1022D0009093A3058093A205089585EC8093BC009C
:1022E0001092AD050895CF93DF9391E09093A505EB
:1022F000882351F0C091B800D091BA009BDF7CDFF9
:10230000D093BA00C093B800DF91CF9108954F9257
:102310005F926F927F928F929F92AF92BF92CF9275
:10232000DF92EF92FF920F931F93CF93DF9341328F
:1023300008F0BFC0122FF42ED72EE62ED82FCAD702
:102340004B015C01C091AD05CC2309F18091A6053C
:102350009091A705A091A805B091A905892B8A2B7A
:102360008B2B81F3B7D74090A6055090A7056090BE
:10237000A8057090A905DC01CB0188199909AA0963
:10238000BB09481659066A067B06E0F67FC082E064
:102390008093AD050093AB058FEF80933A051092C3
:1023A0007F05F0927E059E2DA0E8B5E0EE2DFD2D77
:1023B0008E2F891B8F1518F481918D93F9CF109270
:1023C000AC059091AC05DD0FD92BD093AC05809175
:1023D000AA05813079F51092AA057CD76B017C01A2
:1023E0008091AC058093BB008091A6059091A705D4
:1023F000A091A805B091A905892B8A2B8B2BA1F060
:1024000069D78090A6059090A705A090A805B090E8
:10241000A905DC01CB018C199D09AE09BF098816FD
:102420009906AA06BB0690F18091BC0083FDD8CF27
:1024300085EC01C085EE8093BC004CD76B017C011C
:10244000112349F18091AD05823029F58091A605CF
:102450009091A705A091A805B091A905892B8A2B79
:102460008B2B71F337D78090A6059090A705A0908D
:10247000A805B090A905DC01CB018C199D09AE0916
:10248000BF0988169906AA06BB06D0F68091A40556
:102490002ADFC5E013C080913A058F3F79F0809123
:1024A0003A05803241F080913A05803331F0C4E042
:1024B00005C0C1E003C0C2E001C0C3E08C2FDF91C2
:1024C000CF911F910F91FF90EF90DF90CF90BF9031
:1024D000AF909F908F907F906F905F904F900895F6
:1024E00085ED8093BC008091A6059091A705A091F1
:1024F000A805B091A9050796A11DB11D23E0B695C9
:10250000A795979587952A95D1F72091BC0024FF30
:102510001BC04091A6055091A7056091A805709138
:10252000A905452B462B472B81F30097A105B10543
:1025300041F025E32A95F1F700000197A109B109BF
:10254000E4CF8091A405CFCE1092AD0508951F92DF
:102550000F920FB60F9211240BB60F922F933F9349
:102560004F935F936F937F938F939F93AF93BF939B
:10257000EF93FF938091B900887F803609F49DC066
:1025800070F5883209F45CC090F4803109F455C0CC
:1025900038F4882309F4F3C0883009F44EC0F2C03F
:1025A000883109F44DC0803209F45EC0EBC080343C
:1025B00009F469C050F4803309F456C0883309F037
:1025C000E1C080933A0589DEDDC0803509F44FC053
:1025D000883509F45DC0883409F0D4C0D2C0883988
:1025E00009F4C3C0A8F4883709F467C038F4883602
:1025F00009F463C0803709F460C0C4C0883809F4A6
:10260000B4C0803909F45FC0803809F0BBC05BC03A
:10261000803B09F482C038F4803A09F466C0883AF5
:1026200009F47BC0AFC0803C09F4A3C0883C09F426
:10263000A0C0883B09F486C0A5C08091AC0510C03D
:1026400090917F0580917E05981770F5E0917F0548
:1026500081E08E0F80937F05F0E0E058FA4F808193
:102660008093BB0085EC82C080933A058AC0E091DC
:102670007F0581E08E0F80937F058091BB00F0E0A5
:10268000E058FA4F808390917F0580917E056AC063
:10269000E0917F0581E08E0F80937F058091BB00E4
:1026A000F0E0E058FA4F80838091AB05811169C05A
:1026B00081E08093AA0584EA5DC083E08093AD0544
:1026C00010923B05CFCF80913B05803208F04DC082
:1026D000E0913B0581E08E0F80933B058091BB002C
:1026E000F0E0E45CFA4F8083BDCFF7DD80913B05DD
:1026F000803230F4E0913B05F0E0E45CFA4F108268
:1027000060913B0570E0E091A005F091A1058CE39C
:1027100095E0199510923B0535C084E08093AD0596
:1027200010925D0510925C05E091A205F091A30561
:10273000199580915C05811105C081E080935C054D
:1027400010925E05E0915D0581E08E0F80935D053E
:10275000F0E0E25AFA4F80818093BB0090915D05D2
:1027600080915C05981708F47DCF85E88093BC00C4
:1027700009C085EC8093BC001092AD0503C0109297
:102780003A05AEDEFF91EF91BF91AF919F918F918E
:102790007F916F915F914F913F912F910F900BBE61
:1027A0000F900FBE0F901F9018958091E20590E05A
:1027B0002091E305821B910908959091E305809192
:1027C000E205981750F4E92FF0E0EC51FA4F208120
:1027D00030E09F5F9093E30502C02FEF3FEFC90108
:1027E0000895E091E3058091E205E81730F4F0E008
:1027F000EC51FA4F808190E008958FEF9FEF08959C
:102800000895CF93DF93EC01E091BA05F091BB05F9
:102810003097F1F09091E3058091E2059817C0F0B0
:1028200090E0292F30E02617370754F4DE01A20F7D
:10283000B31F4C91D901AC51BA4F4C939F5FF1CF6C
:102840001092E3056093E205CB01DF91CF911994DB
:10285000DF91CF910895E091BC05F091BD053097CF
:1028600029F01092C0051092BF0519940895CF92D7
:10287000DF92EF92FF920F931F93CF93DF937C0130
:10288000CB018A012091BE05222389F0EB016B0167
:10289000C40ED51ECC15DD0561F06991D701ED910F
:1028A000FC910190F081E02DC7011995F3CF642FC1
:1028B000E2DCC801DF91CF911F910F91FF90EF9063
:1028C000DF90CF900895CF93DF931F92CDB7DEB7FF
:1028D00069832091BE052223D1F02091BF052032CB
:1028E00040F021E030E0FC013383228380E090E07F
:1028F00014C08091C005E82FF0E0EF53FA4F9981A2
:1029000090838F5F8093C0058093BF0504C061E012
:10291000CE010196B0DC81E090E00F90DF91CF9185
:102920000895FC011382128288EE93E0A0E0B0E0EB
:1029300084839583A683B78385EB94E0918380831A
:1029400008951092E3051092E2051092C0051092CE
:10295000BF0552DC8BE294E1BBDC81E094E1B3CCB7
:10296000CB01BA0174CC81E08093BE056093E10590
:102970001092C0051092BF050895F5CF0F93062F52
:1029800021E04091BF0561EC75E08091E105BFDC7D
:102990001092C0051092BF051092BE050F910895C8
:1029A00061E0ECCF8EEA95E0BCCF5058BB27AA2758
:1029B0000ED0B4C0A5D030F0AAD020F031F49F3FA3
:1029C00011F41EF49AC00EF4E095E7FB90C0E92FD5
:1029D000B6D080F3BA17620773078407950718F01B
:1029E00071F49EF5CEC00EF4E0950B2EBA2FA02DFB
:1029F0000B01B90190010C01CA01A0011124FF27AC
:102A0000591B99F0593F50F4503E68F11A16F040A6
:102A1000A22F232F342F4427585FF3CF46953795A5
:102A20002795A795F0405395C9F77EF41F16BA0B6A
:102A3000620B730B840BBAF09150A1F0FF0FBB1F18
:102A4000661F771F881FC2F70EC0BA0F621F731F61
:102A5000841F48F4879577956795B795F7959E3FBE
:102A600008F0B3CF9395880F08F09927EE0F97954C
:102A700087950895E89409C097FB3EF4909580955A
:102A8000709561957F4F8F4F9F4F9923A9F0F92F34
:102A900096E9BB279395F695879577956795B795B2
:102AA000F111F8CFFAF4BB0F11F460FF1BC06F5F98
:102AB0007F4F8F4F9F4F16C0882311F096E911C0AA
:102AC000772321F09EE8872F762F05C0662371F0CB
:102AD00096E8862F70E060E02AF09A95660F771FDF
:102AE000881FDAF7880F9695879597F9089597F9D3
:102AF0009F6780E870E060E008959FEF80EC0895A4
:102B000000240A94161617061806090608950024CC
:102B10000A9412161306140605060895092E039446
:102B2000000C11F4882352F0BB0F40F4BF2B11F4BA
:102B300060FF04C06F5F7F4F8F4F9F4F089557FD19
:102B40009058440F551F59F05F3F71F04795880F1B
:102B500097FB991F61F09F3F79F0879508951216B2
:102B600013061406551FF2CF4695F1DF08C016165E
:102B700017061806991FF1CF86957105610508940F
:102B80000895E894BB2766277727CB0197F9089526
:102B90000BD0C4CFB5DF28F0BADF18F0952309F0C9
:102BA000A6CFABCF1124EECFCADFA0F3959FD1F310
:102BB000950F50E0551F629FF001729FBB27F00DEB
:102BC000B11D639FAA27F00DB11DAA1F649F662740
:102BD000B00DA11D661F829F2227B00DA11D621F8F
:102BE000739FB00DA11D621F839FA00D611D221F49
:102BF000749F3327A00D611D231F849F600D211D2D
:102C0000822F762F6A2F11249F5750408AF0E1F0CF
:102C100088234AF0EE0FFF1FBB1F661F771F881F18
:102C200091505040A9F79E3F510570F060CFAACF58
:102C30005F3FECF3983EDCF3869577956795B79503
:102C4000F795E7959F5FC1F7FE2B880F911D96952D
:102C5000879597F908950E94711EFC01918D228D30
:102C6000892F90E0805C9F4F821B91098F73992779
:102C70000895FC01918D828D981731F0828DE80FB7
:102C8000F11D858D90E008958FEF9FEF0895FC0171
:102C9000918D828D981761F0828DDF01A80FB11D93
:102CA0005D968C91928D9F5F9F73928F90E00895B7
:102CB0008FEF9FEF0895FC01538D448D252F30E059
:102CC000842F90E0821B930B541710F0CF96089539
:102CD0000197089587EF97E1892B39F080E090E024
:102CE000892B19F084D1811125C080E090E0892BD7
:102CF00041F080E090E0892B21F00E9400008111DA
:102D00001CC080E090E0892B41F080E090E0892BAE
:102D100021F00E940000811113C080E090E0892B17
:102D2000A1F080E090E0892B81F00E9400008111E9
:102D30000AC008950E940000D8CF0E940000E1CF91
:102D40000E940000EACF0C9400000895FC01848DDD
:102D5000DF01A80FB11DA35ABF4F2C91848D90E0C5
:102D600001968F739927848FA689B7892C93A089A0
:102D7000B1898C91837080648C93938D848D98132A
:102D800006C00288F389E02D80818F7D80830895BD
:102D9000EF92FF920F931F93CF93DF93EC0181E0AB
:102DA000888F9B8D8C8D981305C0E889F989808167
:102DB00085FD25C0F62E0B8D10E00F5F1F4F0F73A2
:102DC0001127E02E8C8DE8120BC00FB607FCFACF4E
:102DD000E889F989808185FFF5CFCE01B7DFF2CF91
:102DE0008B8DFE01E80FF11DE35AFF4FF0829FB774
:102DF000F8940B8FEA89FB89808180620AC09FB7B3
:102E0000F894EE89FF896083E889F989808183706D
:102E1000806480839FBF81E090E0DF91CF911F911C
:102E20000F91FF90EF900895CF93DF93EC01888D81
:102E30008823C1F0EA89FB89808185FD05C0A889C6
:102E4000B9898C9186FD0EC00FB607FCF5CF808145
:102E500085FFF2CFA889B9898C9185FFEDCFCE018E
:102E600075DFE8CFDF91CF910895CF92DF92EF9297
:102E7000FF921F93CF93DF93EC016A017B01122F26
:102E8000E889F98982E080834115514E6105710519
:102E9000A9F060E079E08DE390E0A7019601D7D436
:102EA000DA01C9010197A109B109B695A7959795CE
:102EB00087959C01211580E13807A0F0E889F98900
:102EC000108260E874E88EE190E0A7019601BFD41B
:102ED000DA01C9010197A109B109B695A79597959E
:102EE00087959C01EC85FD853083EE85FF852083E9
:102EF000188EEC89FD891083EA89FB8980818061C5
:102F00008083EA89FB89808188608083EA89FB89E4
:102F1000808180688083EA89FB8980818F7D8083BE
:102F2000DF91CF911F91FF90EF90DF90CF900895A8
:102F30001F920F920FB60F9211240BB60F922F9380
:102F40008F939F93EF93FF93E0911406F0911506F2
:102F50008081E0911A06F0911B0682FD12C09081DB
:102F600080911D068F5F8F7320911E06821751F08E
:102F7000E0911D06F0E0EC5FF94F958F80931D0600
:102F800001C08081FF91EF919F918F912F910F90C0
:102F90000BBE0F900FBE0F901F9018951F920F92AF
:102FA0000FB60F9211240BB60F922F933F934F93AE
:102FB0005F936F937F938F939F93AF93BF93EF93A1
:102FC000FF9384E096E0C2DEFF91EF91BF91AF9155
:102FD0009F918F917F916F915F914F913F912F9131
:102FE0000F900BBE0F900FBE0F901F90189584E0AE
:102FF00096E033DE21E0892B09F420E0822F08954A
:10300000E4E0F6E01382128288EE93E0A0E0B0E004
:1030100084839583A683B78387EC94E09183808330
:1030200085EC90E09587848784EC90E0978786878D
:1030300080EC90E0918B808B81EC90E0938B828B85
:1030400082EC90E0958B848B86EC90E0978B868B5E
:10305000118E128E138E148E08950895A4D1FDDF63
:103060000E944F04CAE6D6E10E94C5042097E1F30E
:1030700031DEFACFCF92DF92EF92FF920F931F9340
:10308000CF93DF936C017A018B01C0E0D0E0CE15C5
:10309000DF0581F0D8016D918D01D601ED91FC9194
:1030A0000190F081E02DC6011995892B11F0219630
:1030B000EECF7E01C701DF91CF911F910F91FF905D
:1030C000EF90DF90CF9008956115710579F0FB01C5
:1030D00001900020E9F73197AF01461B570BDC0147
:1030E000ED91FC910280F381E02D199480E090E055
:1030F0000895DB0114964D915C9115976D917C912B
:10310000DC01ED91FC910280F381E02D1994DCCF7C
:1031100065ED74E0D9CF0F931F93CF93DF93EC014C
:10312000E8DF8C01CE01F4DF800F911FDF91CF919A
:103130001F910F9108950F931F93CF93DF93EC018D
:10314000C3DF8C01CE01E4DF800F911FDF91CF91AF
:103150001F910F9108958F929F92AF92BF92EF921D
:10316000FF920F931F93CF93DF93CDB7DEB7A19755
:103170000FB6F894DEBF0FBECDBF7C01FA01CB01C4
:1031800019A2223008F42AE08E010F5D1F4F822E13
:10319000912CA12CB12CBF01A501940158D3F901A8
:1031A000CA01015011096A3010F4605D01C0695C08
:1031B000D8016C93232B242B252B69F7B801C70169
:1031C00083DFA1960FB6F894DEBF0FBECDBFDF91AF
:1031D000CF911F910F91FF90EF90BF90AF909F9074
:1031E0008F9008952115310541F4DC01ED91FC919A
:1031F0000190F081E02D642F1994ADCF9A01462FF4
:1032000050E060E070E0EECF0F931F93CF93DF9319
:10321000EC01F4DF8C01CE017BDF800F911FDF9189
:10322000CF911F910F9108951F920F920FB60F9299
:1032300011242F933F938F939F93AF93BF938091CC
:10324000A2069091A306A091A406B091A506309184
:10325000A10623E0230F2D3720F40196A11DB11DF7
:1032600005C026E8230F0296A11DB11D2093A106DB
:103270008093A2069093A306A093A406B093A506FC
:103280008091A6069091A706A091A806B091A906E4
:103290000196A11DB11D8093A6069093A706A09349
:1032A000A806B093A906BF91AF919F918F913F91CE
:1032B0002F910F900FBE0F901F9018952FB7F89475
:1032C0006091A2067091A3068091A4069091A50634
:1032D0002FBF08953FB7F8948091A6069091A70656
:1032E000A091A806B091A90626B5A89B05C02F3FBE
:1032F00019F00196A11DB11D3FBFBA2FA92F982F1C
:103300008827820F911DA11DB11DBC01CD0142E096
:10331000660F771F881F991F4A95D1F708958F92DE
:103320009F92AF92BF92CF92DF92EF92FF926B018A
:103330007C01D0DF4B015C01C114D104E104F10434
:10334000F1F084D2C7DFDC01CB0188199909AA0901
:10335000BB09883E9340A105B10570F321E0C21A74
:10336000D108E108F10888EE880E83E0981EA11CC0
:10337000B11CC114D104E104F10421F7DDCFFF90A9
:10338000EF90DF90CF90BF90AF909F908F90089577
:103390008230910538F0880F991F880F991F059783
:1033A0000197F1F70895789484B5826084BD84B55F
:1033B000816084BD85B5826085BD85B5816085BD30
:1033C000EEE6F0E0808181608083E1E8F0E0108249
:1033D000808182608083808181608083E0E8F0E08A
:1033E000808181608083E1EBF0E080818460808374
:1033F000E0EBF0E0808181608083E1E9F0E08081B2
:1034000082608083808181608083E0E9F0E0808158
:1034100081608083E1EAF0E0808182608083808146
:1034200081608083E0EAF0E0808181608083E1E276
:10343000F1E0808182608083808181608083E0E22E
:10344000F1E0808181608083EAE7F0E08081846040
:10345000808380818260808380818160808380819D
:10346000806880831092C100089590E0FC0131973C
:10347000E231F10508F04DC08827EE58FF4F8F4F1D
:1034800008C2809180008F7703C0809180008F7D7B
:1034900080938000089580918000877FF9CF84B564
:1034A0008F7702C084B58F7D84BD08958091B00070
:1034B0008F7703C08091B0008F7D8093B000089516
:1034C000809190008F7707C0809190008F7D03C01E
:1034D00080919000877F8093900008958091A00054
:1034E0008F7707C08091A0008F7D03C08091A000DE
:1034F000877F8093A0000895809120018F7707C077
:10350000809120018F7D03C080912001877F80936F
:1035100020010895CF93DF9390E0FC01E85AF84F23
:103520002491FC01E256F84F8491882361F190E0E8
:10353000880F991FFC01E85EF74FC591D491FC01FB
:10354000E250F84FA591B491611109C09FB7F8946A
:103550008881209582238883EC912E230BC06230D2
:1035600061F49FB7F8948881322F30958323888344
:10357000EC912E2B2C939FBF06C08FB7F894E88157
:103580002E2B28838FBFDF91CF9108951F93CF9368
:10359000DF93282F30E0F901EE5EF84F8491F901B6
:1035A000E85AF84FD491F901E256F84FC491CC2370
:1035B000B9F0162F811159DFEC2FF0E0EE0FFF1F4D
:1035C000E250F84FA591B4919FB7F894111104C03F
:1035D0008C91D095D82302C0EC91DE2BDC939FBF59
:1035E000DF91CF911F910895FC0180819181009717
:1035F00009F00EC20895CF93DF93EC018881998181
:10360000009709F005D2198218821D821C821B8244
:103610001A82DF91CF9108950F931F93CF93DF9379
:10362000EC018B016F5F7F4F888199817AD200977F
:1036300031F0998388831B830A8381E001C080E095
:10364000DF91CF911F910F910895CF93DF93EC01FC
:1036500088819981892B29F08A819B818617970718
:1036600058F4CE01D9DF882341F08C819D81892BCC
:1036700019F4E881F981108281E0DF91CF910895FA
:10368000EF92FF920F931F93CF93DF93EC017B0197
:103690008A01BA01DADF811103C0CE01ACDF06C0B6
:1036A0001D830C83B7018881998128D3CE01DF91D6
:1036B000CF911F910F91FF90EF900895FC0111821F
:1036C000108213821282158214826115710549F0ED
:1036D000FB0101900020E9F73197AF01461B570B22
:1036E000CFCF0895CF93DF93EC01FB0186179707A7
:1036F00051F0608171816115710521F0448155811E
:10370000BFDF01C078DFCE01DF91CF910895FC01CA
:10371000118210821382128215821482E3CFCF931A
:10372000DF93EC016115710551F0FB010190002060
:10373000E9F73197AF01461B570BA2DF01C05BDFF2
:10374000CE01DF91CF910895EF92FF920F931F93D7
:10375000CF93DF93CDB7DEB7A1970FB6F894DEBF56
:103760000FBECDBF7C01CB01BA01F70111821082DF
:10377000138212821582148242E0420F8E010F5F83
:103780001F4F8FD0BC01C701CADFA1960FB6F894B6
:10379000DEBF0FBECDBFDF91CF911F910F91FF9084
:1037A000EF900895EF92FF920F931F93CF93DF93C3
:1037B0006115710511F480E01AC041155105B1F091
:1037C0007B01EC018C819D818A01080F191FB801D2
:1037D000CE013BDF882379F3288139818C819D815B
:1037E000B701820F931F8AD21D830C8381E0DF9182
:1037F000CF911F910F91FF90EF900895CF93DF939A
:10380000EC01FB014481558160817181CBDF811125
:1038100002C0CE01F0DECE01DF91CF910895CF93AB
:10382000DF93EC016115710559F0FB010190002057
:10383000E9F73197AF01461B570BB4DF811102C086
:10384000CE01D9DECE01DF91CF9108950895A1E296
:103850001A2EAA1BBB1BFD010DC0AA1FBB1FEE1F0A
:10386000FF1FA217B307E407F50720F0A21BB30B55
:10387000E40BF50B661F771F881F991F1A9469F7D1
:1038800060957095809590959B01AC01BD01CF012D
:103890000895EE0FFF1F881F8BBF0790F691E02D54
:1038A0001994EF920F931F93CF93DF93E80147FD95
:1038B00002C034E001C034E1042E000C550B57FF68
:1038C00003C0519541955109E32E022F242FAE01DB
:1038D0001CD2CE01DF91CF911F910F91EF900895EF
:1038E0000F931F93CF93DF938230910510F482E002
:1038F00090E0E091AC06F091AD0620E030E0A0E071
:10390000B0E0309719F1408151810281138148174D
:103910005907C8F08417950769F4109731F012968B
:103920000C93129713961C9327C00093AC06109328
:10393000AD0622C02115310519F04217530718F4BE
:103940009A01BD01EF01DF01F801DBCF211531053F
:10395000F9F0281B390B2430310580F48A819B81D2
:103960006115710521F0FB019383828304C090935C
:10397000AD068093AC06FE01329644C0FE01E20F14
:10398000F31F8193919322503109398328833AC0E0
:103990002091AA063091AB06232B41F4209102021C
:1039A000309103023093AB062093AA0620910002C7
:1039B000309101022115310541F42DB73EB74091F8
:1039C000040250910502241B350BE091AA06F091E8
:1039D000AB06E217F307A0F42E1B3F0B281739079D
:1039E00078F0AC014E5F5F4F2417350748F04E0F5B
:1039F0005F1F5093AB064093AA068193919302C038
:103A0000E0E0F0E0CF01DF91CF911F910F91089599
:103A1000CF93DF93009709F481C0FC0132971382A2
:103A20001282A091AC06B091AD06109781F420816E
:103A30003181820F931F2091AA063091AB0628177F
:103A4000390751F5F093AB06E093AA0667C0ED0184
:103A500020E030E0CE17DF0740F44A815B819E0111
:103A600041155105F1F0EA01F5CFD383C2834081BE
:103A70005181840F951FC817D90759F488819981FE
:103A8000840F951F0296918380838A819B81938303
:103A900082832115310529F4F093AD06E093AC063D
:103AA0003DC0E901FB83EA8349915991C40FD51FB9
:103AB000EC17FD0761F480819181840F951F0296B8
:103AC000E90199838883828193819B838A83E0E0E3
:103AD000F0E012968D919C911397009719F0FD01DB
:103AE000DC01F7CF8D919C9111979D012E5F3F4F87
:103AF000820F931F2091AA063091AB062817390731
:103B000069F4309729F41092AD061092AC0602C009
:103B100013821282B093AB06A093AA06DF91CF91D5
:103B200008956F927F928F929F92AF92BF92CF92A1
:103B3000DF92EF92FF920F931F93CF93DF93009743
:103B400081F4CB01DF91CF911F910F91FF90EF9006
:103B5000DF90CF90BF90AF909F908F907F906F90AD
:103B6000BFCEFC01E60FF71F9C0122503109E2177E
:103B7000F30708F4A5C0EC01D9010D911C91119730
:103B800006171707A8F00530110508F497C0C801FB
:103B900004978617970708F491C002501109061B75
:103BA000170B019311936D937C93CF0131DF86C086
:103BB0005B01A01AB10A4C01800E911EA091AC06C7
:103BC000B091AD06612C712CE12CF12C109709F409
:103BD00046C08D919C911197A815B905B1F56C015E
:103BE00042E0C40ED11CCA14DB0478F14C018A18DF
:103BF0009B08640142E0C40ED11C1296BC9012973F
:103C00001396AC91B5E0CB16D10440F0B282A383F9
:103C100091828082D9016D937C9309C00E5F1F4F02
:103C2000800F911FF90191838083EB2DFA2FE1140E
:103C3000F10431F0D7011396FC93EE9312973EC036
:103C4000F093AD06E093AC0639C06816790608F427
:103C50003C017D0112960D90BC91A02DB7CF8091B3
:103C6000AA069091AB0688169906E1F466167706C7
:103C7000C8F48091000290910102009741F48DB741
:103C80009EB74091040250910502841B950BE817E2
:103C9000F907B0F4F093AB06E093AA06F90171833B
:103CA00060830CC0CB011CDE7C01009749F0A801A9
:103CB000BE011BD0CE01ACDEC70104C0CE0102C0E4
:103CC00080E090E0DF91CF911F910F91FF90EF90F6
:103CD000DF90CF90BF90AF909F908F907F906F902C
:103CE000089581E090E0F8945EC2FB01DC0102C01F
:103CF00001900D9241505040D8F70895FB01DC012E
:103D000001900D920020E1F708958F929F92AF925B
:103D1000BF92CF92DF92EF92FF920F931F93CF93B8
:103D2000DF93CDB7DEB729970FB6F894DEBF0FBE8D
:103D3000CDBF6A01122FB02E2BE3201720F0FF24F5
:103D4000F394F00E02C02CE3F22E0F2D27E0AE010B
:103D50004F5F5F4F50D1BC014981842F8970813002
:103D600031F0E1FC06C0E0FE06C090E205C09DE235
:103D700003C09BE201C090E05E2D507143FF3CC048
:103D8000911102C083E001C084E0811718F4212F53
:103D9000281B01C020E051110BC0F601822F30E238
:103DA000882319F031938150FBCFC20ED11C20E043
:103DB000992329F0D6019C93F60131966F01C60133
:103DC0000396E2FE0AC03EE4D6013C9341E411961C
:103DD0004C93119712963C9306C03EE6F601308351
:103DE00041E641833283FC01322F40E2332309F460
:103DF00042C041933150FACF42FF44C0911102C0FA
:103E000083E001C084E0811718F4212F281B01C032
:103E100020E051110BC0F601822F30E2882319F007
:103E200031938150FBCFC20ED11C20E0992329F0A1
:103E3000D6019C93F60131966F01C6010396E2FE0E
:103E40000BC039E4D6013C933EE411963C931197A4
:103E500036E412963C9307C039E6F60130833EE61D
:103E6000318336E63283FC01322F40E2332319F0EE
:103E700041933150FBCFFC01E20FF11D10828EEF18
:103E80009FEFA6C021E030E0911102C020E030E0B9
:103E9000161617061CF4FB01319602C0E1E0F0E0B3
:103EA0002E0F3F1FBB2021F0EB2DF0E0319602C01A
:103EB000E0E0F0E02E0F3F1FE12FF0E02E173F076C
:103EC0001CF4121B212F01C020E08E2D887159F4A3
:103ED000F601822F30E2882319F031938150FBCF15
:103EE000C20ED11C20E0992329F0D6019C93F60143
:103EF00031966F0151110BC0F601822F90E3882398
:103F000019F091938150FBCFC20ED11C20E00F2DF0
:103F1000060F9A81342F307144FF03C0913309F4A6
:103F20000150101624F4093018F008E001C001E037
:103F3000AB0177FF02C040E050E0FB01E41BF50B52
:103F4000A1E0B0E0AC0FBD1FEA0FFB1F8EE2A82E70
:103F50004B01801A91080B2D10E011950195110964
:103F60004F3FBFEF5B0721F4D601AC9211966D0174
:103F7000641775072CF08416950614F4818101C02E
:103F800080E3415051093196D60111967D014017C9
:103F9000510724F0D6018C936701E2CF64177507AF
:103FA00039F4963320F4953319F4311101C081E3CB
:103FB000F6018083F701822F90E2882319F0919314
:103FC0008150FBCFF701E20FF11D108280E090E0FD
:103FD00029960FB6F894DEBF0FBECDBFDF91CF910B
:103FE0001F910F91FF90EF90DF90CF90BF90AF9017
:103FF0009F908F900895283008F027E03327DA014A
:10400000990F311D87FD916000966105710539F4A6
:1040100032602E5F3D9330E32A95E1F708959F3F8C
:1040200030F080387105610509F03C5F3C5F3D93DD
:10403000913008F08068911DDF93CF931F930F9309
:10404000FF92EF92192F987F9695E92F9695969566
:10405000E90FFF27EE59FE4F99273327EE24FF245F
:10406000A701E70105900894079428F4360FE71E8E
:10407000F81E491F511D660F771F881F991F069450
:10408000A1F70590079428F4E70EF81E491F561F64
:10409000C11D770F881F991F661F0694A1F7059011
:1040A000079428F4F80E491F561FC71FD11D880F0B
:1040B000991F661F771F0694A1F70590079420F4B7
:1040C000490F561FC71FD81F990F661F771F881FDC
:1040D0000694A9F784911095177041F0D695C7956D
:1040E00057954795F794E7941A95C1F7E8E0F1E002
:1040F00068941590159135916591959105907FE2A1
:104100007395E118F10A430B560BC90BD009C0F7A0
:10411000E10CF11E431F561FC91FD01D7EF47033E2
:1041200011F48A95E6CFE894015030F0080F0AF4B4
:104130000027021708F4202F2395022F7A3328F046
:1041400079E37D932A95E9F710C07D932A9589F646
:10415000069497956795379517951794E118F10A86
:10416000430B560BC90BD00998F023957E9173959C
:104170007A3308F070E37C932013B8F77E91706176
:104180007D9330F0839571E37D9370E32A95E1F799
:104190001124EF90FF900F911F91CF91DF919927FC
:1041A00087FD9095089514E0CCE1D4E000E005C0CF
:1041B000802FFE016EDB2196011DCD31D10780E0FD
:0841C0000807B1F7F894FFCFE6
:1041C8000000AE0620002058726177203D200020B4
:1041D80059726177203D2000205A726177203D2076
:1041E8000020586E6F726D203D200020596E6F724E
:1041F8006D203D2000205A6E6F726D203D20002DED
:10420800003A00456E61626C6564004469736162DE
:104218006C656400202A20536C656570204D6F64BE
:10422800653A202020202020202000202A20436CCE
:104238006F636B20536F757263653A2020202020CE
:10424800200053746F70732074686520636C6F630B
:104258006B20616E64206B656570732074686520DF
:1042680074696D696E672067656E657261746F72D7
:1042780020696E20726573657400504C4C20776914
:1042880074682065787465726E616C2031392E32DD
:104298004D487A207265666572656E636500504C9C
:1042A8004C20776974682065787465726E616C203B
:1042B80033322E3736386B487A20726566657265F8
:1042C8006E636500504C4C2077697468205A2061F1
:1042D800786973206779726F73636F706520726590
:1042E800666572656E636500504C4C20776974682A
:1042F80020592061786973206779726F73636F70D2
:1043080065207265666572656E636500504C4C2069
:104318007769746820582061786973206779726FAB
:1043280073636F7065207265666572656E6365009C
:10433800496E7465726E616C20384D487A206F73CF
:1043480063696C6C61746F7200202A204779726F00
:1043580073636F70653A20202020202020202000E1
:104368003230303020647073003130303020647067
:10437800730035303020647073003235302064703B
:104388007300202A204779726F73636F7065206FFE
:104398006666736574733A2000202F2000536361AA
:1043A8006E6E696E672E2E2E004932432064657644
:1043B80069636520666F756E64206174206164644A
:1043C8007265737320307800300020202100556E0C
:1043D8006B6E6F776E206572726F722061742061E8
:1043E800646472657373203078004E6F20493243DD
:1043F800206465766963657320666F756E640A006C
:10440800646F6E650A006669656C64313D002666F6
:1044180069656C64323D004300000000008A0A3A76
:104428001898059B052B167C064D066C06540660ED
:10443800069C057C061E081D087D06B606EF063498
:10444800075107BE07000000008A0A3A1898059B22
:1044580005600B7C064D066C06540660069C057CC0
:10446800061E08DA0C800E410EEF0634075107BE0F
:1044780007000000006314371498050014D513DDF5
:1044880013F11300000000C8163A185B1614172D14
:1044980016471639160D0A006E616E00696E6600C1
:0444A8006F766600C5
:00000001FF
