:1000000038C6000067C6000065C6000063C6000071
:1000100061C600005FC600005DC600005BC6000050
:1000200059C6000057C6000055C6000053C6000060
:1000300051C600004FC600004DC600004BC6000070
:1000400049C6000047C6000045C6000043C6000080
:1000500041C600003FC600003DC600000C94302C95
:1000600039C600000C9485290C94BB2933C60000C6
:1000700031C600002FC600002DC600002BC60000B0
:1000800029C6000027C6000025C6000023C60000C0
:1000900021C600001FC600001DC600000C941C23D2
:1000A00019C6000017C6000015C6000013C60000E0
:1000B00011C600000FC600000DC600000BC60000F0
:1000C00009C6000007C6000005C6000003C6000000
:1000D00001C60000FFC50000FDC50000FBC5000013
:1000E000F9C50000AB06A806A506A2069F069C0659
:1000F000B10699063D1B591B591B501B591B321B3E
:10010000591B591B591B341B591B591B441B4E1B94
:100110004C1B591B591B591B4A1B6B2D6E2D5D2DFA
:10012000612D672DA52D722D762D7C2D802D842D92
:100130008A2D8E2D922DA52D982D9C2DA02D4320FE
:100140000054656D70657261747572653A200020A7
:10015000250048756D69646974793A2000535344E9
:100160003133303620616C6C6F636174696F6E205F
:100170006661696C65640000000000003E5B4F5BD7
:100180003E3E6B4F6B3E1C3E7C3E1C183C7E3C183A
:100190001C577D571C1C5E7F5E1C00183C1800FF1E
:1001A000E7C3E7FF0018241800FFE7DBE7FF30484C
:1001B0003A060E2629792926407F050507407F0546
:1001C000253F5A3CE73C5A7F3E1C1C08081C1C3E3D
:1001D0007F14227F22145F5F005F5F06097F017F2B
:1001E000006689956A606060606094A2FFA29408CE
:1001F000047E040810207E201008082A1C08081C11
:100200002A08081E101010100C1E0C1E0C30383E50
:100210003830060E3E0E06000000000000005F00B1
:10022000000007000700147F147F14242A7F2A127D
:100230002313086462364956205000080703000063
:100240001C2241000041221C002A1C7F1C2A080895
:100250003E080800807030000808080808000060A8
:10026000600020100804023E5149453E00427F4094
:100270000072494949462141494D331814127F10F3
:1002800027454545393C4A4949314121110907363D
:1002900049494936464949291E00001400000040DA
:1002A00034000000081422411414141414004122D4
:1002B000140802015909063E415D594E7C12111283
:1002C0007C7F494949363E414141227F4141413E7F
:1002D0007F494949417F090909013E414151737FE5
:1002E0000808087F00417F41002040413F017F080E
:1002F0001422417F404040407F021C027F7F04085F
:10030000107F3E4141413E7F090909063E4151218E
:100310005E7F09192946264949493203017F0103B5
:100320003F4040403F1F2040201F3F4038403F6338
:100330001408146303047804036159494D43007F92
:100340004141410204081020004141417F04020163
:100350000204404040404000030708002054547805
:10036000407F284444383844444428384444287F53
:10037000385454541800087E090218A4A49C787FAD
:100380000804047800447D40002040403D007F1078
:1003900028440000417F40007C047804787C0804F5
:1003A00004783844444438FC1824241818242418A9
:1003B000FC7C08040408485454542404043F442496
:1003C0003C4040207C1C2040201C3C4030403C44B1
:1003D000281028444C9090907C4464544C4400086D
:1003E000364100000077000000413608000201029B
:1003F00004023C2623263C1EA1A161123A40402063
:100400007A385454555921555579412254547842DB
:10041000215554784020545579400C1E527212399F
:100420005555555939545454593955545458000058
:10043000457C410002457D420001457C407D121112
:10044000127DF0282528F07C545545002054547C1A
:10045000547C0A097F4932494949323A4444443A72
:10046000324A4848303A4141217A3A4240207800A5
:100470009DA0A07D3D4242423D3D4040403D3C2448
:10048000FF2424487E4943662B2FFC2F2BFF09298C
:10049000F620C0887E090320545479410000447D31
:1004A000413048484A32384040227A007A0A0A727B
:1004B0007D0D19317D2629292F2826292929263025
:1004C000484D4020380808080808080808382F1048
:1004D000C8ACBA2F102834FA00007B000008142A98
:1004E000142222142A14085500550055AA55AA555D
:1004F000AAFF55FF55FF000000FF00101010FF007D
:10050000141414FF001010FF00FF1010F010F0146E
:100510001414FC001414F700FF0000FF00FF141473
:10052000F404FC141417101F10101F101F141414BF
:100530001F00101010F0000000001F101010101FFE
:1005400010101010F010000000FF1010101010100C
:10055000101010FF10000000FF140000FF00FF004B
:10056000001F10170000FC04F414141710171414C3
:10057000F404F40000FF00F714141414141414F716
:1005800000F7141414171410101F101F141414F46F
:10059000141010F010F000001F101F0000001F14B6
:1005A000000000FC140000F010F01010FF10FF1409
:1005B0001414FF141010101F00000000F010FFFFB3
:1005C000FFFFFFF0F0F0F0F0FFFFFF000000000081
:1005D000FFFF0F0F0F0F0F3844443844FC4A4A4ABC
:1005E000347E02020606027E027E026355494163A2
:1005F0003844443C04407E201E2006027E020299BC
:10060000A5E7A5991C2A492A1C4C7201724C304A54
:100610004D4D303048784830BC625A463D3E4949DD
:1006200049007E0101017E2A2A2A2A2A44445F4485
:100630004440514A444040444A51400000FF0103B5
:10064000E080FF000008086B6B083612362436067F
:100650000F090F06000018180000001010003040AD
:10066000FF0101001F01011E00191D1712003C3C73
:100670003C3C00000000002200FF210000010307B5
:100680000F1F3F7F0080C0E0F0F8FCFEDB40A4A617
:100690002EAF2000A1C8D300408DAED580A80000A9
:1006A000600000000000000000000000000000E00A
:1006B0000000000000000000000000000001E00059
:1006C00000000000000000000000000001F0000039
:1006D000000000000000000000000003F000000027
:1006E0000000000000000000000007F00000000013
:1006F00000000000000000000007F80000000000FB
:1007000000000000000000000FF800000003C0001F
:100710007E000001E0007F0FF800000003C000FE33
:10072000000001E000FFEFF800000003C000FE0041
:100730000001E000FFFFF800000003C000F000002F
:10074000000F007FFE7FC0000003C000F00000002B
:100750000F003FFE7FF83FF1FBCFFCFEF3BC3DEF07
:10076000E01FFE7FFF7FFBFFDFFEFEFFBC3DEFE0F3
:100770001FC6FFFF7FFBFFDFFEFEFFBC3DEFE00F6C
:10078000E3C7FE787BC3DE1EF0FFBC3DEF0007FF32
:1007900087FC787BC3DE1EF0F83C3DEF0001FFFFD5
:1007A000F0007BC3C01EF0F03C3DEF0001F37FE0A2
:1007B0003FFBC3CFFEF0F03C3DEF0003E33F807F03
:1007C000FBC3DFFEF0F03C3DEF0007E73C00787B29
:1007D000C3DE1EF0F03C3DEF0007FFBE00787BC398
:1007E000DE1EF0F03C3DEF0007FFFE00787BC3DE2D
:1007F0001EF0F03C3DEF000FFFFE007FFBFFDFFE31
:10080000F0F03FFDEFE00FFFFF007FFBFFDFFEF0AA
:10081000F03FFDEFE00FF9FF003E79F9CF9EF0F0D9
:100820001F3DE7E01FF1FF00000000000000000096
:100830000000001F80FF007FFFFFFFFFFFFFFFFFA3
:10084000FFE01C007F007FFFFFFFFEB46D888D1866
:10085000E000001F007FFFFFFFFE95AD7DB577E054
:1008600000000F007FFFFFFFFEA5AD9D8D19E0008A
:100870000006007FFFFFFFFEB5ADEDB57EE0000096
:100880000000000180000000000000000000038064
:1008900000000000000000000007C0000000000091
:1008A0000000000007C00000000000000000000F72
:1008B000C00000000000000000001FE00000000079
:1008C00000000000001FE000000000000000000029
:1008D0003FE00000000000000000003FF0000000CA
:1008E0000000000000007FF0000000000000001F7A
:1008F000F87FF0000000000000003FFE7FF00000E5
:1009000000000000003FFF7FF0000000000000003A
:100910001FFFFBE0000000000000000FFFF9FFC018
:100920000000000000000FFFF9FFF80000000000C9
:100930000007FFF1FFFF00000000000003FC73FF51
:10094000FF80000000000001FE3FFFFF800000006C
:10095000000000FF1E0FFF000000000000007FFEEF
:100960001FFC000000000000003FFFFFF800000037
:10097000000000000FDFFFE0000000000000001F8B
:1009800019FFC0000000000000003F3CFF00000015
:1009900000000000007E7CF8000000000000000065
:1009A0007FFE7C0000000000000000FFFFFC000054
:1009B000000000000000FFFFFE000000000000003B
:1009C00000FFFFFE0000000000000001FFEFFE003E
:1009D00000000000000001FFCFFE0000000000004A
:1009E0000003FF07FE0000000000000003FC07FEFC
:1009F0000000000000000003F003FE000000000003
:100A00000000018000FE0000000000000000000067
:100A10007E000000000000000000003E000000001A
:100A20000000000000000C00000000000007800033
:100A3000FC000003C0000000078001FC000003C0B0
:100A4000000000078001FC000003C00000000780D8
:100A500001E00000001E000000078001E00000002F
:100A60001E007FE3F79FF9FDE7787BDFC0FFF7FF0C
:100A7000BFFDFDFF787BDFC0FFF7FFBFFDFDFF7807
:100A80007BDFC0F0F787BC3DE1FF787BDE00F0F74D
:100A900087BC3DE1F0787BDE0000F787803DE1E038
:100AA000787BDE007FF7879FFDE1E0787BDE00FF4B
:100AB000F787BFFDE1E0787BDE00F0F787BC3DE122
:100AC000E0787BDE00F0F787BC3DE1E0787BDE007C
:100AD000F0F787BC3DE1E0787BDE00FFF7FFBFFD6C
:100AE000E1E07FFBDFC0FFF7FFBFFDE1E07FFBDF61
:100AF000C07CF3F39F3DE1E03E7BCFC000000000EF
:100B000000000000000000FFFFFFFFFFFFFFFFFFEE
:100B1000FFC0FFFFFFFFFD68DB111A31C0FFFFFFC1
:100B2000FFFD2B5AFB6AEFC0FFFFFFFFFD4B5B3B56
:100B30001A33C0FFFFFFFFFD6B5BDB6AFDC00003E4
:100B40000205000305010406020400000A0B020965
:100B50000C0D0E0807030401000000000000000057
:100B60000000000000000000000000000000000085
:100B70000000000000001211100000000000000042
:100B80000000000000000000000000000000000065
:100B9000010210202008081020401020408002018F
:100BA0000201080402010102040810204080804074
:100BB0002010080402018004020180402010080473
:100BC0000201080402010102040810204080010211
:100BD00004081020408005050505070508080808D9
:100BE000020202020A0A08080404040401010101C5
:100BF00001010101030303030303030304070707C0
:100C00000C0C0C0C0C0C0C0C020202020606060664
:100C1000060606060B0B0B0B0B0B0B0B0000200044
:100C20002300260029002C002F00320000010000C4
:100C300003010601090100002200250028002B0005
:100C40002E003100340002010000050108010B01F3
:100C500000002100240027002A002D00300033006E
:100C600001010000040107010A016307A925ED291C
:100C7000920711241FBECFEFD1E2DEBFCDBF00E04F
:100C80000CBF14E0A0E0B2E0E8E3FFE500E00BBF3A
:100C900002C007900D92A23BB107D9F726E0A2EB64
:100CA000B4E001C01D92A73FB207E1F716E0C8E328
:100CB000D6E000E006C021970109802FFE010E94C6
:100CC000572EC533D10780E00807A9F70E941B2AD9
:100CD0000C948B2F95C98DE496E00E94922A67E1CF
:100CE00072E08DE496E00E948A2A85EC94E00E94EE
:100CF000831C811103C06EE072E002C066E072E006
:100D00008DE496E00E94A52A6EE272E08DE496E002
:100D10000E948A2A85EC94E00E94731C90E088303F
:100D20009105F8F4FC018827EE58FF4F8F4F0C9483
:100D3000572E65E472E011C06DE772E00EC061EA03
:100D400072E00BC067EC72E008C06BEE72E005C0A9
:100D50006FE073E002C063E373E08DE496E00E940D
:100D6000A52A6CE473E08DE496E00E948A2A85EC63
:100D700094E00E946C1C813059F068F0823029F0B8
:100D8000833079F463E673E008C06CE673E005C075
:100D900065E773E002C06DE773E08DE496E00E94C2
:100DA000A52A65E873E08DE496E00E948A2A85EC26
:100DB00094E00E94C81D4AE050E0BC018DE496E03A
:100DC0000E94522B6CE973E08DE496E00E948A2A1F
:100DD00085EC94E00E94CA1D4AE050E0BC018DE41D
:100DE00096E00E94522B6CE973E08DE496E00E943D
:100DF0008A2A85EC94E00E94CC1D4AE050E0BC01B8
:100E00008DE496E00E94582B8DE496E00C94922A93
:100E10000F9326E040E855E260E070E08DE496E054
:100E20000E94222901E021E04CE362E08FE395E09B
:100E30000E944111811107C06DE571E08DE496E0DB
:100E40000E94952AFFCF8FE395E00E94231128E6A8
:100E500030E040E063E085EC94E00E94411D8111A8
:100E60000DC060EA73E08DE496E00E94A52A64EF6D
:100E700071E080E090E00E94AB2CE9CF26E040E8F2
:100E800055E260E070E08DE496E00E94222987EF51
:100E900095E00E94162583E395E00E94E11B45ED55
:100EA00053E06EED73E083E395E00E94101B62E374
:100EB00085EC94E00E94621E0EDF67E382EB94E013
:100EC0000F910C94B8158F929F92AF92BF92CF92D0
:100ED000DF92EF92FF920F9380EA882E86E8982E99
:100EE000AA24A394B12C90E8C92E9AE1D92E96E0B9
:100EF000E92EF12C04E027EF35E040E460E88FE3D1
:100F000095E0FED726E04BE062E082EB94E00F91A3
:100F1000FF90EF90DF90CF90BF90AF909F908F9019
:100F20000C9497158FE395E00C94CA0F4F925F9243
:100F30006F927F928F929F92AF92BF92EF920F9398
:100F40001F93CF93DF93CFE3D5E081E0888F1D8699
:100F50001C861F861E8661E0CE010CD781E090E0E2
:100F60009B8B8A8B998B888BCE010E94231160E02A
:100F700082EB94E00E94CB192B013C0140E060E041
:100F800082EB94E00E9437194B015C01E12C8B014C
:100F90009C01AB01BC0182EB94E00E94D21562E59A
:100FA00071E0CE010E94952A62E0CE01E3D622E0F4
:100FB00030E0B301A201CE010E942F2C6FE471E05A
:100FC000CE010E94952A1D861C8680E290E09F87B4
:100FD0008E8761E0CE01CED661E471E0CE010E9441
:100FE000952A62E0CE01C6D622E030E0B501A40128
:100FF000CE010E942F2C67EACE01DBD56EE371E0B3
:10100000CE010E94662ACE010E94A81468EE73E009
:1010100080E090E00E94AB2C61E082EB94E0DF91F5
:10102000CF911F910F91EF90BF90AF909F908F90B5
:101030007F906F905F904F900C94131A20918105D0
:10104000222399F04FB7F89420918105213059F46B
:101050002DB320937F053DB3209180052095232358
:101060002DBB4FBF02C040937F058CBD9DBD089531
:1010700080918105882361F09FB7F89420918105C4
:1010800080917F05213019F48DBB9FBF08958FBFDC
:10109000089580E090E0089508952F923F924F9236
:1010A0005F926F927F928F929F92AF92BF92CF92F8
:1010B000DF92EF92FF920F931F93CF93DF9300D0B5
:1010C00000D0CDB7DEB72C017E836D836A01590154
:1010D000C801FC82EB824801841A950A97FE03C07E
:1010E00091948194910835012D813E81621A730A91
:1010F00077FE03C0719461947108681479045CF4FC
:101100003A2D2B2D5C01832F922F3D812E81DE8283
:10111000CD82C32ED22EAD81BE81AA16BB065CF451
:101120003C2D2D2D6C01832F922F3D812E81BE826F
:10113000AD82A32EB22E85012D813E81021B130BA1
:101140001C012C183D0837FE03C03194219431084E
:10115000780117FF03C03FEFE31AF30AF594E79411
:10116000C816D9062CF08FEF9FEF9A83898304C0AD
:10117000A1E0B0E0BA83A9832D813E81A216B30617
:1011800024F1D201ED91FC910484F585E02D2B81B1
:101190003C816814790424F44D815E81B60103C05A
:1011A000A6016D817E81C2011995E218F308F7FE50
:1011B00006C029813A81C20ED31EE00EF11E8D8138
:1011C0009E8101969E838D83D7CF26960FB6F89485
:1011D000DEBF0FBECDBFDF91CF911F910F91FF906A
:1011E000EF90DF90CF90BF90AF909F908F907F90C7
:1011F0006F905F904F903F902F900895DC01ED919C
:10120000FC910084F185E02D19940F931F93DC016C
:10121000ED91FC91048CF58DE02D19951F910F91A6
:1012200008950F931F93DC01ED91FC91068CF78DCF
:10123000E02D19951F910F910895EF92FF920F9352
:101240001F93DC01ED91FC9100A0F1A1E02D199517
:101250001F910F91FF90EF90089508958F929F92A4
:10126000AF92BF92CF92DF92EF92FF920F931F93B4
:10127000CF93DF93EC015B014A0169017801E881BA
:10128000F9810284F385E02D1995C80CD91C8601DB
:1012900001501109E881F9810488F589E02D950153
:1012A000A401B501CE011995E881F9810688F78975
:1012B000E02DCE01DF91CF911F910F91FF90EF9024
:1012C000DF90CF90BF90AF909F908F9019948F92A6
:1012D0009F92AF92BF92CF92DF92EF92FF920F93C5
:1012E0001F93CF93DF93EC015B014A016901E88111
:1012F000F9810284F385E02D199595012C0D3D1D92
:1013000021503109E881F9810488F589E02D7801BF
:101310008401A401B501CE011995E881F9810688FF
:10132000F789E02DCE01DF91CF911F910F91FF90B2
:10133000EF90DF90CF90BF90AF909F908F901994D7
:101340004F925F926F927F928F929F92AF92BF92D5
:10135000CF92DF92EF92FF920F931F93CF93DF9381
:101360006C012B015A0139014801DC01ED91FC911E
:101370000284F385E02D1995E201640C751CD601F9
:10138000ED91FC91C615D7055CF40088F189E02D3C
:1013900087019401A501BE01C60119952196EFCFE1
:1013A0000688F789E02DC601DF91CF911F910F913B
:1013B000FF90EF90DF90CF90BF90AF909F908F9075
:1013C0007F906F905F904F901994EF92FF920F93E0
:1013D0001F93DC011A960D911C911B9718962D9165
:1013E0003C911997ED91FC9100A0F1A1E02D7B01BA
:1013F00040E050E060E070E019951F910F91FF9080
:10140000EF9008958F929F92AF92BF92CF92DF920A
:10141000EF92FF920F931F93CF93DF934C016B01D9
:101420005A01E901DC01ED91FC916217730781F427
:101430000417150724F48B2D5801042F182F0A19AF
:101440001B0998012F5F3F4F048CF58DE02D12C0D2
:101450004017510709F52617370724F48D2D690128
:10146000C62FD82F9E012C193D092F5F3F4F068CA8
:10147000F78DE02D8701A501B601C4011995DF9113
:10148000CF911F910F91FF90EF90DF90CF90BF9081
:10149000AF909F908F9008950284F385E02D199569
:1014A000D401ED91FC910488F589E02D9E01A50100
:1014B000B601C4011995D401ED91FC910688F78914
:1014C000E02DC401DF91CF911F910F91FF90EF901C
:1014D000DF90CF90BF90AF909F908F9019946F92B4
:1014E0007F928F929F92AF92BF92CF92DF92EF92B4
:1014F000FF920F931F93CF93DF93EC014B015A019F
:1015000069013801E881F9810284F385E02D19959C
:10151000E881F9810288F389E02D87019601A50110
:10152000B401CE011995A501460D571D4150510931
:10153000E881F9810288F389E02D9601B401CE019A
:101540001995E881F9810088F189E02D9301A501C1
:10155000B401CE011995C80CD91CB60161507109AE
:10156000E881F9810088F189E02D9301A501CE0180
:101570001995E881F9810688F789E02DCE01DF9180
:10158000CF911F910F91FF90EF90DF90CF90BF9080
:10159000AF909F908F907F906F9019940895FC0169
:1015A0006370668B8481958126813781613039F043
:1015B000633029F0918780873387228708953187A8
:1015C0002087938782870895FC01138212828BE221
:1015D00094E0918380837583648357834683718706
:1015E000608753874287168A158614861786168663
:1015F00081E0858B848B2FEF3FEF338B228B318BF8
:10160000208B878B108E128E118E08953F924F92F1
:101610005F926F927F928F929F92AF92BF92CF9282
:10162000DF92EF92FF920F931F93CF93DF93CDB78B
:10163000DEB72A970FB6F894DEBF0FBECDBF5C01B0
:101640007E836D8358874F8329013701DC01ED913B
:10165000FC910284F385E02D1995C801079697FD4A
:1016600007969C0193E0359527959A95E1F73A8383
:101670002983812C912CE12CF12C312C8F819885A0
:101680008E0D9F1D9C838B83E614F7040CF03DC0E8
:101690001A861986A985BA85A017B10774F5CD01F8
:1016A00087709927892B11F0330C0EC0E985FA85D4
:1016B000F7FD379683E0F595E7958A95E1F7E80D14
:1016C000F91DE40DF51D349037FE11C0D501ED91E3
:1016D000FC910484F585E02D96014B815C816D8140
:1016E0007E8189859A85680F791FC5011995A9851D
:1016F000BA851196BA87A987CDCFBFEFEB1AFB0A3F
:1017000029813A81820E931EB9CFD501ED91FC91CA
:101710000688F789E02DC5012A960FB6F894DEBF3A
:101720000FBECDBFDF91CF911F910F91FF90EF9032
:10173000DF90CF90BF90AF909F908F907F906F90F1
:101740005F904F903F9019942F923F924F925F92EB
:101750006F927F928F929F92AF92BF92CF92DF92C1
:10176000EF92FF920F931F93CF93DF93CDB7DEB726
:101770006B970FB6F894DEBF0FBECDBF9B8F8A8FDD
:101780002B015A834983D22E198708874701AB82E0
:10179000DC0159962D913C915A972115310509F09C
:1017A00000C118968D919C911997681779070CF0D4
:1017B000E7C11A968D919C911B97481759070CF019
:1017C000DFC12C2C312CFB0126E0C29EE00DF11D67
:1017D0001124FD87EC871E161F060CF0D1C14A2D7F
:1017E00050E05B874A8783E0440F551F8A95E1F7F5
:1017F0005F874E8789819A81840F951F1816190675
:101800000CF0BEC158968C91811104C06FEA6D1521
:1018100008F4D394AA8DBB8DED91FC9111970284AD
:10182000F385E02DCD011995B5E0DB9EC0011124B3
:10183000EC2DF0E0F98BE88B92012B5F3F4F3B8B57
:101840002A8B32015D824C82AC01441955095D8BB3
:101850004C8B7B81672F70E07F8B6E8B89819A81A7
:101860000896998F888FEC89FD89E60DF71DE95858
:10187000FE4FD490A981BA81BF83AE835D01D0FEB3
:1018800016C0AA8DBB8DED91FC91B1E0CB1209C0C1
:101890002B81213031F40484F585E02D28853985AC
:1018A00019C00684F785E02DE884F9841DC04885B9
:1018B00059854815590511F1AA8DBB8DED91FC9103
:1018C000B1E0CB120DC02B81213051F40484F58599
:1018D000E02D9401A501B3018A8D9B8D19950EC051
:1018E0000684F785E02D74010A851B8591014E81E0
:1018F0005F816C817D818A8D9B8D1995D6944E81F7
:101900005F816E897F89460F571F5F834E837FEF0C
:10191000A71AB70A888D998DA816B90609F0AFCF16
:10192000AC81BD81E889F989AE0FBF1FBD83AC834F
:10193000FFEF6F1A7F0A2A893B896216730609F046
:1019400092CF488559854815590509F4F7C0AA8DE5
:10195000BB8DED91FC91B1E0CB1212C02B812130F7
:1019600079F4B2016B5F7F4F0088F189E02D84012B
:1019700028E030E049815A818A8D9B8D1995DEC01F
:101980006C857D85621973090684F785E02D7401E5
:101990000E851F85910149815A818A8D9B8D1995EC
:1019A000CDC0F9013496E491DE1AF90132968591A1
:1019B0009491B7E0DB9E800D911D1124F9012591D2
:1019C0003491398B288BFC0125903490FC013296A0
:1019D00074903196A490329694903196B49031E000
:1019E0003C1518F04B81423068F0692D092C000C31
:1019F000770B7D836C838B2D0B2C000C990B9F83B5
:101A00008E8304C01F821E821D821C82AA8DBB8D04
:101A1000ED91FC9111970284F385E02DCD0119958C
:101A2000612CD12C812CFB81EF2FF0E0FB87EA8722
:101A30002C2D30E03D872C8749815A814B0D511D5B
:101A4000B7FC5A955D8B4C8BB201690D711D97FCEB
:101A50007A957F8B6E8B8A1408F070C0282D30E049
:101A60004E815F81420F531FAA85BB85A49FC00191
:101A7000A59F900DB49F900D1124E981FA81E80F84
:101A8000F91FFF87EE87862D912C4C895D89420FC7
:101A9000531F5B8B4A8B971408F04DC0BB24B39443
:101AA000B80E877041F4C1010196E889F989E20D09
:101AB000F31DD4901C01D7FE3AC051E0C51216C0E8
:101AC0006B81613099F4AA8DBB8DED91FC911197DA
:101AD0000484F585E02D288539854A895B896E89DE
:101AE0007F89690D711DCD01199521C08C819D8162
:101AF000890D911DEC85FD858E9FB0018F9F700D26
:101B00009E9F700D1124640D751DAA8DBB8DED91E6
:101B1000FC9111970684F785E02DE884F9840A8505
:101B20001B852C853D854E855F85CD011995DD0C86
:101B300093948B2DB0CF670C83948DCFAA8DBB8DE2
:101B4000ED91FC9111970688F789E02DCD016B96F8
:101B50000FB6F894DEBF0FBECDBFDF91CF911F91BE
:101B60000F91FF90EF90DF90CF90BF90AF909F903C
:101B70008F907F906F905F904F903F902F9019942F
:101B80006B960FB6F894DEBF0FBECDBFDF91CF913D
:101B90001F910F91FF90EF90DF90CF90BF90AF908B
:101BA0009F908F907F906F905F904F903F902F907D
:101BB00008958F929F92AF92CF92EF92FF920F93E0
:101BC0001F93CF93DF93EC01262F898D9A8D009779
:101BD00009F041C06A3059F41D861C862D898E8516
:101BE0009F8538E0239F800D911D112442C06D30E8
:101BF00009F4A8C08F898823C9F03C898C859D850C
:101C000046E0349F800D911D112448855985481761
:101C1000590764F41D861C863D898E859F8548E0A2
:101C2000349F800D911D11249F878E87EA88FB8841
:101C3000088919894E855F856C857D85AD88CC883E
:101C4000CE0182DD2C898C859D8536E0239F800D19
:101C5000911D11243EC06A3079F41D861C862D89A1
:101C6000FC013896E4918E859F852E9F800D911DF5
:101C700011249F878E8766C06D3009F463C0FC0114
:101C800034963491631708F45DC03296E491E617F8
:101C900008F458C0462F431B342FFC013296859020
:101CA000949047E0349F800C911C1124F4013296EB
:101CB00034913196E491332311F0E1110DC0F40118
:101CC0003496E4912C898C859D85E29F800D911D31
:101CD00011249D878C8736C0F401359644915F8925
:101CE000552319F15C89E32FF0E0E40FF11D47FD66
:101CF000FA955E9FB0015F9F700D11244C855D8544
:101D0000460F571F688579856417750774F41D861B
:101D10001C863D89FC013896E4918E859F853E9F07
:101D2000800D911D11249F878E87EA88FB88088982
:101D300019894E855F856C857D85AD88CC88CE01FF
:101D400003DDBDCF81E090E0DF91CF911F910F9136
:101D5000FF90EF90CF90AF909F908F90089561117A
:101D600001C061E0FC01648B411101C041E0FC0154
:101D7000458B0895462FF3CFFC0177FDB9C08085D0
:101D80009185681779070CF0B3C057FDB1C0828503
:101D90009385481759070CF008958689823079F4A5
:101DA00084819581DC01A61BB70BBD0161507109CF
:101DB00086819781DC01A41BB50BAD010EC0833079
:101DC00009F084C064277527CA01862797276827EA
:101DD000792746815781481B590B415051092130C1
:101DE000310531F048F12230310509F44AC0089537
:101DF000CA0157FD07969C01A3E035952795AA9542
:101E0000E1F7A481B5812A9FC0012B9F900D3A9FD5
:101E1000900D1124680F791F078CF0A1E02DE60FBB
:101E2000F71F4770552781E090E001C0880F4A9561
:101E3000EAF79081892B48C0CA0157FD07969C019B
:101E400093E0359527959A95E1F7A481B5812A9F6E
:101E5000C0012B9F900D3A9F900D1124680F791FA0
:101E6000078CF0A1E02DE60FF71F4770552781E0A2
:101E700090E001C0880F4A95EAF780959081892308
:101E800023C0CA0157FD07969C0183E0359527952D
:101E90008A95E1F7A481B5812A9FC0012B9F900DFF
:101EA0003A9F900D1124680F791F078CF0A1E02D47
:101EB000E60FF71F4770552781E090E001C0880FBB
:101EC0004A95EAF79081892780830895813009F047
:101ED00086CF64277527462757276427752784816F
:101EE0009581DC01A61BB70BBD016150710977CF4D
:101EF00008958EBD00000DB407FEFDCF8EB5089588
:101F00004F925F926F927F928F929F92AF92BF9209
:101F1000CF92DF92EF92FF920F93CF93DF93CDB7E3
:101F2000DEB73C01290150E070E04EDB87E594E02C
:101F3000F30191838083148E138E4114510411F0A8
:101F4000C20102C087EF95E0F301968F858F10A242
:101F5000178E8FEF84A385A386A387A300A7C5AAA6
:101F6000D6AAE7AAF0AE81AE92AEA3AEB4AE80E53B
:101F700086AF17AEDF91CF910F91FF90EF90DF907A
:101F8000CF90BF90AF909F908F907F906F905F9019
:101F90004F90089527E534E0FC0131832083878D3D
:101FA00090A1009711F00C94F72E08951F93CF93F2
:101FB000DF93FC01858D968D009719F1162FEF01A7
:101FC00061A1062E000C770B0E9432258D8D9E8D0F
:101FD000DC01ED91FC910190F081E02D60E019951C
:101FE0008D8D9E8DDC01ED91FC910190F081E02DB5
:101FF000612F19958D8D9E8DDF91CF911F910C943E
:10200000A725A5A5B6A59C9183A9809589238C9326
:10201000838D948D892B29F0862FDF91CF911F918D
:1020200068CF28E030E080E8A1A5B2A591A9462FAD
:10203000482319F04C91942B03C04C919095942314
:102040009C93A3A5B4A54C9192A9942B9C93A3A572
:10205000B4A54C9192A9909594239C938695215078
:10206000310911F7DF91CF911F9108951F93CF93FD
:10207000DF93EC01162F8D8D9E8D009739F04DA9C1
:102080005EA96FA978AD0E9425250FC08B8D9C8D10
:10209000892B21F08EAD9FAD0E941E08EFA5F8A9F7
:1020A00090818CA9809589238083111102C066EAF2
:1020B00001C067EACE017ADF8D8D9E8D009749F0D1
:1020C00049AD5AAD6BAD7CADDF91CF911F910C94B2
:1020D0002525EFA5F8A990818CA9892B80838B8D6C
:1020E0009C8D892B29F0DF91CF911F910C9438089A
:1020F000DF91CF911F910895BF92CF92DF92EF921F
:10210000FF920F931F93CF93DF93EC01B62E072F0F
:10211000142F8D8D9E8D009709F452C069A1062E53
:10212000000C770B0E9432258D8D9E8DDC01ED9188
:10213000FC910190F081E02D60E01995CB2CD02E20
:10214000EE24E394F12C8D8D9E8D112371F1B0E27C
:10215000EB16F104B8F00E94A72569A1062E000C29
:10216000770B8D8D9E8D0E9432258D8D9E8DDC018D
:10217000ED91FC910190F081E02D60E01995EE2445
:10218000E394F12C8D8D9E8DF6016491DC01ED912F
:10219000FC910190F081E02D1995BFEFEB1AFB0A3D
:1021A0001150F60131966F01CECFDF91CF911F9183
:1021B0000F91FF90EF90DF90CF90BF900C94A725E8
:1021C000EDA5FEA590818BA9809589238083E62EBD
:1021D000F72E112371F1F70184912B8D3C8D232B68
:1021E00031F087DE1150C70101967C01F2CF28E063
:1021F00030E040E8E9A5FAA599A9582F542319F031
:102200005081952B03C05081909595239083EBA529
:10221000FCA550819AA9952B9083EBA5FCA5508134
:102220009AA990959523908346952150310911F7ED
:10223000D9CFDF91CF911F910F91FF90EF90DF9059
:10224000CF90BF900895FC01868197819C01295F02
:102250003F4F37FF02C0295F3F4F83E035952795F9
:102260008A95E1F784819581289FA001299F500DCF
:10227000389F500D112460E070E0878D90A10C9480
:10228000842F8F929F92AF92BF92CF92DF92EF9264
:10229000FF920F931F93CF93DF93EC01862EB42E02
:1022A000A22E902E8F8D98A1892BE9F42E813F814B
:1022B000C901079697FD079623E0959587952A957E
:1022C000E1F72C813D81AC01429FC001439F900DFD
:1022D000529F900D11240E945F2E98A38F8F892BFF
:1022E00011F480E084C1CE01AEDF8E819F816C81CC
:1022F0007D8181329105E4F0AC014054510957FFD2
:1023000002C04F5F5F4F559547956255710977FF42
:1023100002C06F5F7F4F75956795CC24C394D12C15
:1023200080E4E82EF12C02E510E02EE738E01BC037
:10233000AC014052510957FF02C04F5F5F4F5595A6
:1023400047956357710977FF02C06F5F7F4F75959F
:102350006795CC24C394D12CA0E2EA2EF12C03E79C
:1023600010E02EE936E0CE0151D98AA28D8D9E8DE6
:10237000009799F0B11007C02E813F8120323105BE
:1023800021F42CE303C02B2D01C02DE329A39920B8
:1023900009F42AC10E94162579C061E08EA10E942D
:1023A000A62D61E08FA10E94A62D8EA1082E000C03
:1023B000990BFC01EA52F44FE491F0E0EE0FFF1F9D
:1023C000EA5CF34F259134913EA72DA7FC01E0571D
:1023D000F44FE491EBAB8FA1082E000C990BFC019C
:1023E000EA52F44FE491F0E0EE0FFF1FEA5CF34F86
:1023F000A591B491B8ABAFA7FC01E057F44FE491BD
:10240000ECAB8C91E82BEC938B8D9C8D892B31F070
:10241000992009F43BC00E944E2038C061E08CA195
:102420000E94A62D61E08DA10E94A62D8CA1082EF0
:10243000000C990BFC01EA52F44FE491F0E0EE0F2E
:10244000FF1FEA5CF34F259134913AA729A7FC01BD
:10245000E057F44FE491E9AB8DA1082E000C990BE5
:10246000FC01EA52F44FE491F0E0EE0FFF1FEA5C4A
:10247000F34FA591B491BCA7ABA7FC01E057F44F73
:10248000E491EAAB8C91E095E823EC93AA20F1F07B
:1024900088A587FD1BC061E00E94A62D61E088A58C
:1024A0000E94E22D61E070E080E090E00E94AB2CA1
:1024B00060E088A50E94E22D6AE070E080E090E094
:1024C0000E94AB2C61E088A50E94E22D8D8D9E8D2F
:1024D000009739F04DA95EA96FA978AD0E94252516
:1024E0000FC08B8D9C8D892B21F08EAD9FAD0E94EE
:1024F0001E08EFA5F8A990818CA980958923808377
:1025000044E06AE976E0CE01F7DD6E816150CE01EC
:102510004DDD44E066E976E0CE01EEDD8AA1813052
:1025200011F460E101C064E1CE0140DD44E062E904
:1025300076E0CE01E1DD8FE88DAF8C819D81803822
:10254000910571F48E819F8180349105B9F48AA13F
:10255000813011F48FE901C08FEC8DAF12E10FC013
:102560008036910559F48E819F81409739F48AA174
:10257000813011F480E101C08FEA8DAF12E06AED85
:10258000CE0114DD612FCE0111DD61E8CE010EDD3B
:102590006DADCE010BDD69EDCE0108DD8AA1813084
:1025A00011F462E201C061EFCE0100DD46E06CE8AB
:1025B00076E0CE01A1DD8D8D9E8D009739F049AD7D
:1025C0005AAD6BAD7CAD0E9425250CC0EFA5F8A9D6
:1025D00090818CA9892B80838B8D9C8D892B11F008
:1025E0000E94380881E003C0A11052CF73CFDF9161
:1025F000CF911F910F91FF90EF90DF90CF90BF9000
:10260000AF909F908F9008950F931F93CF93DF9378
:10261000DC0157FD64C016968D919C911797481761
:1026200059070CF05CC077FF04C0260F371F60E02D
:1026300070E01496CD91DC911597CB01820F931F1A
:10264000C817D9071CF49E01261B370B1216130658
:102650000CF045C0FA0157FD3796CF01E3E09595A0
:102660008795EA95E1F78C9FF0018D9FF00D9C9F77
:10267000F00D11246E0F7F1F5F96ED91FC919097E6
:10268000E60FF71F4770552781E090E001C0880FE3
:102690004A95EAF7482F0130110539F078F00230F9
:1026A0001105E9F42E0F3F1F13C02E0F3F1FE21735
:1026B000F307A9F08081842B8193F9CF80952E0FA9
:1026C0003F1FE217F30759F0908198239193F9CFB8
:1026D000E217F30721F0808184278193F9CFDF91FE
:1026E000CF911F910F910895EF92FF920F931F9337
:1026F000CF93DF93EC0177FDA5C0EC80FD806E15D4
:102700007F050CF09FC057FF04C0240F351F40E029
:1027100050E08E819F81FA01E20FF31F8E179F0711
:102720001CF49C01241B350B121613060CF08AC0F6
:10273000922F842F8695869586958E9DD0018F9DAC
:10274000B00D11246A0F7B1FAF8DB8A1A60FB71F64
:102750004770B1F188E0841B482F682F70E0FB01BF
:10276000EC57F94FE491281798F4621B71092FEF89
:1027700030E002C0359527956A95E2F7E2230130F3
:10278000110549F078F00230110509F05BC00EC068
:102790000130110519F48C91E82B0AC001301105A4
:1027A00008F049C0E0958C91E82302C08C91E8279D
:1027B000EC93941708F446C02C813D81A20FB31FFF
:1027C000E92FE41BE830F8F00230110561F48E2F98
:1027D0009C9190959C932C813D81A20FB31F8850B2
:1027E0008830B0F70FC081E00115110509F480E0D1
:1027F00081959E2F8C932C813D81A20FB31F985001
:102800009830C0F7E770EE23E9F0F0E0E458F94FB4
:10281000E4910130110539F048F00230110591F4CE
:102820008C91E82706C08C91E82B03C0E0958C9131
:10283000E823EC9307C00230110509F4B7CFAE0DC1
:10284000BF1DBECFDF91CF911F910F91FF90EF90F1
:1028500008950F931F93DC015696EC915697E23042
:1028600061F0E33009F1E13079F51496ED91FC91D6
:102870001597E41BF50B319723C0DC011496ED91FD
:10288000FC911597DF01A61BB70BBD01DC01169665
:10289000ED91FC911797DF01A41BB50BAD014150E1
:1028A0005109621B730B10C0FA01DC0116964D91A1
:1028B0005C911797DA01A61BB70BBD01621B730B66
:1028C000AB01BF0111DF01C09FDE1F910F91089581
:1028D0000F931F93DC015696EC915697E23069F006
:1028E000E33011F1E13081F51496ED91FC911597EB
:1028F000E41BF50BE21BF30B23C0DC011496ED91F6
:10290000FC911597DF01A61BB70BBD016150710942
:10291000DC011696ED91FC911797DF01A41BB50B16
:10292000AD01421B530B10C0FA01DC0116964D910C
:102930005C911797DA01A61BB70BBD0161507109B5
:10294000AB01BF0161DE01C0CFDE1F910F91089581
:10295000CF92DF92EF92FF920F931F93CF93DF936B
:10296000EC018D8D9E8D009739F04DA95EA96FA960
:1029700078AD0E9425250FC08B8D9C8D892B21F071
:102980008EAD9FAD0E941E08EFA5F8A990818CA97D
:1029900080958923808345E067E776E0CE01ACDB54
:1029A0006C816150CE0102DB2E813F81C901079607
:1029B00097FD079623E0959587952A95E1F72C8159
:1029C0003D81829F7001839FF00C929FF00C112437
:1029D0000F8D18A18D8D9E8DE00EF11E009709F4CC
:1029E00043C069A1062E000C770B0E9432258D8D05
:1029F0009E8DDC01ED91FC910190F081E02D60E471
:102A00001995680101E010E08D8D9E8DEC14FD0498
:102A100041F100321105B0F00E94A72569A1062EF0
:102A2000000C770B8D8D9E8D0E9432258D8D9E8D95
:102A3000DC01ED91FC910190F081E02D60E41995AD
:102A400001E010E08D8D9E8DF60161916F01DC013A
:102A5000ED91FC910190F081E02D19950F5F1F4FD2
:102A6000D3CF0E94A72534C0EDA5FEA590818BA9E8
:102A7000892B80830E151F0559F1F80181918F0173
:102A80002B8D3C8D232B11F034DAF4CF28E030E08D
:102A900040E8E9A5FAA599A9582F542319F05081C7
:102AA000952B03C05081909595239083EBA5FCA5B1
:102AB00050819AA9952B9083EBA5FCA550819AA9EA
:102AC00090959523908346952150310911F7D2CFE7
:102AD0008D8D9E8D009771F049AD5AAD6BAD7CAD7B
:102AE000DF91CF911F910F91FF90EF90DF90CF90EA
:102AF0000C942525EFA5F8A990818CA9892B8083BA
:102B00008B8D9C8D892B51F0DF91CF911F910F916F
:102B1000FF90EF90DF90CF900C943808DF91CF9129
:102B20001F910F91FF90EF90DF90CF900895DC01FF
:102B300015966C93159716964C93169770E0FB01BB
:102B4000E057F44FE4911796EC931797FB01EA5284
:102B5000F44F649118966C93189740E85EE360E038
:102B600070E01D964D935D936D937C9350970895FF
:102B70001F93CF93DF93EC01162F62E08D810E94AB
:102B8000A62D0E947A2CDC01CB01805D9740A10923
:102B9000B10989879A87AB87BC871A8BDF91CF9160
:102BA0001F9108954F925F926F927F928F929F92A2
:102BB000AF92BF92CF92DF92EF92FF920F931F934B
:102BC000CF93DF93CDB7DEB729970FB6F894DEBF6A
:102BD0000FBECDBF4A015B0128013901E986E11032
:102BE00010C026E636E646EE5FE3C501B4010E945A
:102BF0005F2720E030E040E052E40E94AD254B0129
:102C00005C0120E030E048E852E4C501B4010E94D4
:102C1000AC252AE939E949E95FE30E945F276B01A6
:102C20007C0120E030E044E752E4C501B4010E9499
:102C3000AD259B01AC01C701B6010E94AD256B011A
:102C40007C0122E133E840EC5DE3C301B2010E9464
:102C50005F279B01AC01C701B6010E94AD2520E0B2
:102C600030E040E05FE30E945F27C62EE72ED82EBB
:102C7000F92E20E030E04EE952E40E945B2718165E
:102C80000CF07DC1A5019401C501B4010E945F272C
:102C90006B017C01A3019201C301B2010E945F2775
:102CA0006D837E838F83988721E133E243E050E494
:102CB000C501B4010E945F2729E134E849E252E4EA
:102CC0000E94AC2569837A838B839C8326E13BE455
:102CD00042E251E4C301B2010E945F279B01AC01B3
:102CE00069817A818B819C810E94AD2569837A8379
:102CF0008B839C8328E436E246E65EEBC501B40193
:102D00000E945F27A30192010E945F279B01AC01F3
:102D100069817A818B819C810E94AD2569837A8348
:102D20008B839C8320EE3FE040EE5BEBC701B60156
:102D30000E945F279B01AC0169817A818B819C8114
:102D40000E94AD2569837A838B839C8328EF37E8C3
:102D500040E65DEB6D817E818F8198850E945F27C3
:102D60009B01AC0169817A818B819C810E94AD2598
:102D700069837A838B839C832CEA3DE041EA5AE3A2
:102D8000C701B6010E945F27A30192010E945F273D
:102D90009B01AC0169817A818B819C810E94AD2568
:102DA00069837A838B839C8328EC3FE84FE55AE361
:102DB000C501B4010E945F272D813E814F81588556
:102DC0000E945F279B01AC0169817A818B819C8184
:102DD0000E94AD2569837A838B839C8321EF3BE836
:102DE00045E056EBC701B6010E945F272D813E8169
:102DF0004F8158850E945F279B01AC0169817A81D0
:102E00008B819C810E94AD25C62EE72ED82EF92EEF
:102E100020E030E040E551E4C301B2010E941126F8
:102E200087FF5EC020E030E040EA52E4C501B40113
:102E30000E945B2787FD54C020E030E040EE52E462
:102E4000C501B4010E94112618160CF4B1C0A301EB
:102E5000920160E070E080E591E40E94AC2520E002
:102E600030E040E85EE30E945F272B013C0120E058
:102E700030E04EEB52E4C501B4010E94AC254B0199
:102E80005C0120E030E0A9010E945B2718164CF499
:102E9000A501940160E070E088E891E40E94AC250F
:102EA00008C020E030E048E851E4C501B4010E94C8
:102EB000AD252EE33DEE40E75DE30E945F270E94D3
:102EC000C6279B01AC01C301B2010E945F279B0191
:102ED000AC016C2D7E2D8D2D9F2D0E94AC254BC0FD
:102EE00020E030E04AEA52E4C301B2010E945B27CD
:102EF00018160CF044C020E030E040EA52E4C5016E
:102F0000B4010E945B2787FD3AC020E030E04EEA22
:102F100052E4C501B4010E941126181684F120E084
:102F200030E04AEA52E4C301B2010E94AC252DEC24
:102F30003CEC4CEC5DE30E945F272B013C01A501BA
:102F4000940160E070E08EEA92E40E94AC252DECE2
:102F50003CEC4CE45EE30E945F279B01AC01C301A3
:102F6000B2010E945F279B01AC016C2D7E2D8D2D3F
:102F70009F2D0E94AD25C62EE72ED82EF92E8985CD
:102F8000811111C020E030E040E052E46C2D7E2D34
:102F90008D2D9F2D0E94AC2526E838E34EE05FE39F
:102FA0000E945F2711C06C2D7E2D8D2D9F2D0CC092
:102FB00020E030E04AEA52E4C301B2010E945B27FC
:102FC00018160CF4A2CFDBCF4B015C01C501B40194
:102FD00029960FB6F894DEBF0FBECDBFDF91CF911B
:102FE0001F910F91FF90EF90DF90CF90BF90AF9027
:102FF0009F908F907F906F905F904F900895CF92A9
:10300000DF92EF92FF921F93CF93DF93EC011F812A
:10301000662311F0912F01C090E0288530E0220F47
:10302000331F245E334FA0E0B0E0F9014591549185
:10303000FA0180818123AD0160E070E098130FC038
:103040001196CD84DE84EF84F8884C155D056E05FD
:103050007F0558F33FEF2FEF8FEF9FEF03C03A2F1D
:10306000252FCB01632F722FDF91CF911F91FF90FE
:10307000EF90DF90CF9008958F929F92AF92BF9282
:10308000CF92DF92EF92FF920F931F93CF93DF9334
:10309000CDB7DEB7C054D1400FB6F894DEBF0FBE37
:1030A000CDBF8C01F62E0E947A2CF11016C0F801CB
:1030B000C184D284E384F4849B01AC012C193D09C2
:1030C0004E095F0969017A0130EDC31637E0D30676
:1030D000E104F10410F48189B6C0F80161877287B8
:1030E000838794871482138212821182108262E095
:1030F00085810E94A62D61E070E080E090E00E9452
:10310000AB2C61E0F80185810E94A62D60E0F801FA
:1031100085810E94E22DF80186818551823028F454
:103120008CE494E00E94E42C06C064E170E080E04E
:1031300090E00E94AB2C62E0F80185810E94A62DF0
:10314000F801828990E00E94E42CF89460E0C801C4
:1031500056DF6F3F7F4F8F4F9F4F21F4F801118A49
:10316000789442C061E0C8014ADF6F3F7F4F8F4FC4
:103170009F4FA1F39E012F5F3F4F79015E013FEB0F
:10318000A31A3EEFB30A670160E0C80138DFF60119
:10319000608371838283938361E0C80130DFF6012D
:1031A0006483758386839783F8E0CF0ED11CCA149D
:1031B000DB0451F7789420E030E0F70180809180C3
:1031C000A280B3804481558166817781FFEF8F169D
:1031D0009F06AF06BF0631F04F3F8FEF58076807D5
:1031E000780721F4F801118A80E02DC0F90183E00D
:1031F000F595E7958A95E1F7E00FF11F8081880F3B
:1032000084169506A606B70608F4816080832F5FB2
:103210003F4FF8E0EF0EF11C2832310571F6F8014E
:10322000248130E04081818190E0840F911D4281B2
:10323000840F911D4381840F911D99272817390709
:1032400089F681E0818BC05CDE4F0FB6F894DEBF5B
:103250000FBECDBFDF91CF911F910F91FF90EF90E7
:10326000DF90CF90BF90AF909F908F900895CF92B6
:10327000DF92EF92FF920F931F93CF93DF938C0116
:10328000C62F642FF9DE882309F478C0F8018681FF
:103290008C3009F445C018F48B30C9F06FC08551EB
:1032A000823008F06BC0F801D2816D2F6F7770E02B
:1032B000762F66278381682B80E090E00E94A92604
:1032C0002DEC3CEC4CEC5DE30E945F2746C0F8011E
:1032D000628170E080E090E00E94A9266B017C0191
:1032E000F801D381D7FF0AC09B01AC0160E070E018
:1032F00080E89FEB0E94AC256B017C016D2F6F7005
:1033000070E080E090E00E94AB262DEC3CEC4CECB1
:103310005DE30E945F27A70196010E94AD251FC0B3
:10332000F801D28163816F7070E080E090E00E94CC
:10333000AB262DEC3CEC4CEC5DE30E945F276B016F
:103340007C016D2F70E080E090E00E94A9269B0137
:10335000AC01C701B6010E94AD25D7FD9058CC2322
:1033600089F026E636E646EE5FE30E945F2720E01E
:1033700030E040E052E40E94AD2504C060E070E01F
:1033800080EC9FE7DF91CF911F910F91FF90EF901D
:10339000DF90CF900895CF92DF92EF92FF92CF937C
:1033A000DF93EC0169DE882399F18E818B3080F107
:1033B0008D3098F08551823058F568817981762773
:1033C0006727762780E090E00E94A9262DEC3CEC50
:1033D0004CEC5DE30E945F271FC0698170E080E0D4
:1033E00090E00E94AB262DEC3CEC4CEC5DE30E949F
:1033F0005F276B017C01688170E080E090E00E94B3
:10340000AB269B01AC01C701B6010E94AD2504C0EB
:1034100060E070E080EC9FE7DF91CF91FF90EF904C
:10342000DF90CF9008958F929F92AF92BF92EF92CC
:103430000F931F93CF93DF93EC01E62E60E0ABDF99
:103440004B015C0140E06E2DCE0111DFAB01BC01F0
:1034500095018401CE01A6DBDF91CF911F910F91E1
:10346000EF90BF90AF909F908F900895DC01ED9109
:10347000FC910190F081E02D1994FB019081905313
:103480009A3008F090E0FB0181818053FAE09F9F21
:10349000800D11240895CF93DF93522F81E090E0A7
:1034A000433010F080E090E0EB01C81BD90BE42F13
:1034B000F0E0E35CF44FE4919E0136952795369554
:1034C0002795CE01850F911D280F391FCE0160E988
:1034D00071E00E94212E260F371FCE0164E670E0B6
:1034E0000E94212EC901861B970B8E0F911D67E04C
:1034F00070E00E94212E811101C087E0DF91CF9101
:103500000895AF92BF92CF92DF92EF92FF920F9306
:103510001F93CF93DF935C01D62FD72E142FF22E5B
:1035200068E670E087EF95E00E94322560E070E089
:1035300087EF95E09BDFCAE08C2D6C2F0E94152E43
:10354000692F20E1829F600D112487EF95E00E9492
:10355000D8248E2D6C2F0E94152E692F20E1829F7A
:10356000600D112487EF95E00E94D824802F6C2FE6
:103570000E94152E692F20E1829F600D112487EF94
:1035800095E00E94D8242F2D412F6D2F7D2DC50150
:1035900082DF6C2F0E94152E692F20E1829F600D23
:1035A000112487EF95E00E94D8248F2D6C2F0E9464
:1035B000152E692F20E1829F600D112487EF95E081
:1035C0000E94D824812F6C2F0E94152E692F20E194
:1035D000829F600D112487EF95E00E94D82480E33C
:1035E0008D0F6C2F0E94152E692F20E1829F600D98
:1035F000112487EF95E00E94D82460E070E087EF07
:1036000095E034DF87EF95E0DF91CF911F910F9127
:10361000FF90EF90DF90CF90BF90AF900C94A725D4
:103620008F929F92AF92BF92CF92DF92EF920F93C1
:103630001F93CF935C018B016A01675F7F4F1DDF92
:10364000882E912CD801EC918E2F90E0FC01E15452
:10365000F109E331F10568F58827E658FF4F8F4FF0
:103660000C94572EC2E025C0F80181818136D1F03B
:1036700082818E36C9F0C7E01CC0D80112968C91A9
:103680008237A1F0C8E015C0F8018281823781F04D
:10369000C5E00FC0C9E00DC0CAE00BC0CBE009C057
:1036A000CCE007C0C1E005C0C6E003C0C4E001C073
:1036B000C3E0B8016C5F7F4FC501DFDE182FB60194
:1036C000C501DBDE082FB6016D5F7F4FC501D5DE7A
:1036D000E82EB6016A5F7F4FC501CFDEB4016053AB
:1036E000784FC82E212F4C2FC5010BDFCF911F9192
:1036F0000F91EF90DF90CF90BF90AF909F908F9001
:103700000895CF93DF93D62FC42F68E670E087EF3C
:1037100095E00E9432256D2F87EF95E00E94D82416
:103720006C2F87EF95E00E94D82487EF95E0DF911A
:10373000CF910C94A725CF93C62F68E670E087EF52
:1037400095E00E9432256C2F87EF95E00E94D824E7
:1037500087EF95E00E94A72541E050E068E670E021
:1037600087EF95E00E94A52587EF95E00E944A2407
:10377000892BD1F387EF95E00E945224C82F87EF61
:1037800095E00E94A7258C2FCF9108950F931F934A
:10379000CF93DF93EC01162F042F6EE0CCDF0023D4
:1037A00011F0806401C08F7B482F112311F04B77FB
:1037B00001C040686EE0CE01DF91CF911F910F9163
:1037C000A0CFCF93DF93EC0187EF95E00E94162501
:1037D00040E061E0CE01DADF80ED97E099838883F5
:1037E00081E08A838B831C821D821E8286E08F8308
:1037F00080E795E3ADE6B8E388879987AA87BB871A
:1038000081E0DF91CF9108951F93CF93DF93162F1F
:10381000EC01C459DF4F6881798187EF95E00E9400
:103820003225612F87EF95E00E94D82487EF95E03D
:103830000E94A7256881798187EF95E00E94322553
:103840006881798141E050E087EF95E00E94A525ED
:1038500087EF95E00E945224C82F87EF95E00E94E1
:10386000A7258C2FDF91CF911F9108951F93CF93A0
:10387000DF93162FEC01C459DF4F6881798187EF00
:1038800095E00E943225612F87EF95E00E94D824B1
:1038900087EF95E00E94A7256881798187EF95E001
:1038A0000E9432256881798141E050E087EF95E000
:1038B0000E94A52587EF95E0EDD7892BD9F387EFF7
:1038C00095E0F0D7C82F87EF95E00E94A7258C2FB1
:1038D000DF91CF911F9108956BE1C8DF88718695C4
:1038E0008695869508956BE6C1DF87700895CF931E
:1038F000C42FBCDF90E002C095958795CA95E2F78A
:103900008170CF91089546E06BE6F1CFCF93DF93BE
:10391000D62FC42F84599F4FFC016081718187EF9E
:1039200095E00E9432256D2F87EF95E00E94D82404
:103930006C2F87EF95E00E94D82487EF95E0DF9108
:10394000CF910C94A7250F931F93CF938C01C62F73
:10395000613079F048F0623089F06330D1F48CEE58
:1039600090ECA9E7BDE30EC08FE39EE1AAEFBBE3B5
:1039700009C080E792E2AAE7BCE304C08FED9FEBA9
:10398000A9EFBCE3F801E15AFF4F80839183A28342
:10399000B3836BE1C8016ADF98E0C99FB0011124CD
:1039A000877E482F462B6BE1C801CF911F910F9165
:1039B000ADCF0F931F93CF938C01C62F613079F059
:1039C00048F0623089F06330D1F488E195EFAFEFD1
:1039D000B9E30EC080E49AEDAFE7B8E309C080E434
:1039E0009AEDAFEFB8E304C080E49AEDAFE7B9E336
:1039F000F801ED59FF4F80839183A283B3836CE17B
:103A0000C80134DF98E0C99FB0011124877E482F98
:103A1000462B6CE1C801CF911F910F9177CF0F9387
:103A20001F93CF938C01C62F6BE620DF887F482F32
:103A30004C2B6BE6C801CF911F910F9167CFFF927E
:103A40000F931F93CF93DF93EC01162F042FF22EC9
:103A50000DDF41E050E001C0440F0A95EAF7FF2076
:103A600011F0482B02C040954823612FCE01DF9111
:103A7000CF911F910F91FF9049CF262F46E06BE623
:103A8000DECF0F931F93CF93DF93EC01062F142FFC
:103A9000FC01E459FF4F3183208387EF95E0C6D7BF
:103AA0001CAE1DAE1EAE1FAEFE01E05CFF4F1082CD
:103AB0001182128213823496108211821282138232
:103AC000B796108218AA19AA1AAA1BAA1CAA1DAA7C
:103AD0001EAA1FAA18AE19AE1AAE1BAE34971082DA
:103AE00011821282138265E7CE018EDE883671F470
:103AF00061E0CE0194DF602FCE0125DF612FCE0182
:103B000058DF60E0CE01B9DF81E001C080E0DF91E5
:103B1000CF911F910F910895FF920F931F93CF9311
:103B2000DF93F62EEC01C459DF4F6881798187EF6E
:103B300095E098D76F2D87EF95E03AD787EF95E01E
:103B40000E94A7256881798187EF95E08BD76881EE
:103B5000798142E050E087EF95E0F7D787EF95E075
:103B600099D6892BD9F387EF95E09CD6D82F87EF8C
:103B700095E098D6C82F87EF95E0E9D71D2F00E094
:103B8000C8018C2BDF91CF911F910F91FF90089569
:103B900063E1C2CF65E1C0CF67E1BECF4F925F92D4
:103BA0006F927F928F929F92AF92BF92CF92DF924D
:103BB000EF92FF920F931F93CF93DF934C016B0112
:103BC0005B018CE6A80EB11CF5016081718187EF65
:103BD00095E048D763E487EF95E0EAD687EF95E074
:103BE000B6D7F5016081718187EF95E03BD7F5018C
:103BF0006081718146E050E087EF95E0A6D787EFBE
:103C000095E048D60697DCF387EF95E04BD6482E33
:103C100087EF95E047D6582E87EF95E043D6682E7C
:103C200087EF95E03FD6782E87EF95E03BD6A82E1C
:103C300087EF95E037D6B82EF42CE12CB701652933
:103C4000072E000C880B990B0E94AB26F6016487A7
:103C5000758786879787162D00E0B8016729072E9C
:103C6000000C880B990B0E94AB26F601608B718BC0
:103C7000828B938BDA2DF0E0CF2FCB29BE01DD0FA5
:103C8000880B990B0E94AB26F601648B758B868B93
:103C9000978B8CE03C96D40101900D928A95E1F7C8
:103CA000C401DF91CF911F910F91FF90EF90DF90B2
:103CB000CF90BF90AF909F908F907F906F905F90CC
:103CC0004F9008952F923F924F925F926F927F9202
:103CD0008F929F92AF92BF92CF92DF92EF92FF921C
:103CE0000F931F93CF93DF93CDB7DEB7A4970FB693
:103CF000F894DEBF0FBECDBF8C01262EFC01E55926
:103D0000FF4F81E08083312C198E1A8E1B8E1C8E02
:103D10001D8A1E8A1F8A188E198A1A8A1B8A1C8A73
:103D20001D861E861F86188A812C912C5401240121
:103D30003501321409F479C0B801CE0101962EDFA5
:103D4000D8011C96CD90DD90ED90FC901F97A701B7
:103D50009601C301B20101D72B013C01D801509655
:103D60008D919D910D90BC91A02D8D8F9E8FAF8FC9
:103D7000B8A39C01AD01C501B401EFD64B015C01B4
:103D8000D80154968D919D910D90BC91A02D89A341
:103D90009AA3ABA3BCA39C01AD016D857E858F85E5
:103DA0009889DBD66D877E878F87988BA7019601D0
:103DB000C701B6010E945F279B01AC0169897A891E
:103DC0008B899C89CAD6698B7A8B8B8B9C8B2D8D2A
:103DD0003E8D4F8D58A1CA01B9010E945F279B01FA
:103DE000AC016D897E898F89988DB7D66D8B7E8B5E
:103DF0008F8B988F29A13AA14BA15CA1CA01B9016F
:103E00000E945F279B01AC01698D7A8D8B8D9C8D03
:103E1000A4D6698F7A8F8B8F9C8F65E070E080E0ED
:103E200090E00E94AB2C339484CF632D70E080E04F
:103E300090E091D76B017C019B01AC01C301B20101
:103E4000F4D62B013C01F80164AF75AF86AF97AF94
:103E5000A7019601C501B401E8D64B015C01F80148
:103E6000E05CFF4F6083718382839383A701960197
:103E70006D857E858F859889D8D66B017C01F80188
:103E8000EC5BFF4F608371838283938320E030E09B
:103E900048E452E469897A898B899C89C6D66D8702
:103EA0007E878F87988BA3019201C301B2010E9484
:103EB0005F279B01AC016D857E858F8598894CD6E7
:103EC0000E94C627F801E85BFF4F608371838283FD
:103ED000938320E030E048E452E46D897E898F8945
:103EE000988DA3D62B013C01A5019401C501B40115
:103EF000E6D79B01AC01C301B2012ED60E94C627B2
:103F0000F801E45BFF4F608371838283938320E039
:103F100030E048E452E4698D7A8D8B8D9C8D85D696
:103F20004B015C01A7019601C701B601C8D79B01EF
:103F3000AC01C501B40110D60E94C627F801E05BB0
:103F4000FF4F60837183828393837796C080D18093
:103F5000E280F38020E030E0A901C701B601ABD7D1
:103F60001816ECF4C701B601C8D6C801A4960FB65E
:103F7000F894DEBF0FBECDBFDF91CF911F910F919F
:103F8000FF90EF90DF90CF90BF90AF909F908F9079
:103F90007F906F905F904F903F902F9019C0A496A4
:103FA0000FB6F894DEBF0FBECDBFDF91CF911F914A
:103FB0000F91FF90EF90DF90CF90BF90AF909F90C8
:103FC0008F907F906F905F904F903F902F900895CB
:103FD000CF92DF92EF92FF921F93CF93DF93EC018A
:103FE000162F662309F43BC0FC01E559FF4F808181
:103FF000811103C062E3CE0165DE612F70E080E0D5
:1040000090E0A9D66B017C019B01AC01FE01E85B4D
:10401000FF4F608171818281938151D768AB79AB09
:104020008AAB9BABA7019601FE01E45BFF4F608169
:1040300071818281938143D76CAB7DAB8EAB9FAB9B
:10404000A7019601FE01E05BFF4F608171818281D3
:10405000938135D768AF79AF8AAF9BAF0CC018AAF0
:1040600019AA1AAA1BAA1CAA1DAA1EAA1FAA18AE20
:1040700019AE1AAE1BAEC959DF4F612F70E080E058
:1040800090E067D6688379838A839B83DF91CF91A1
:104090001F91FF90EF90DF90CF900895CF93CFB70F
:1040A000F89480918205811127C0EBE0FCE08491B7
:1040B000E5ECFBE09491E82FF0E0EE0FFF1FE05BF2
:1040C000F34FA591B491EC91E92321F461E085E3EC
:1040D0000E94E22D61E085E30E94A62D8CB58061EF
:1040E0008CBD8CB580648CBD61E084E30E94A62DFC
:1040F00061E083E30E94A62D809182058F5F80930B
:104100008205CFBFCF9108951092F60581E080938C
:10411000F4051092F30561E084E10E94E22D61E074
:1041200085E10E94E22DE9EBF0E080818E7F8083C3
:1041300080818D7F808388E48093B80085E48093BC
:10414000BC000895ECEBF0E080818A7B808360E026
:1041500084E10E94E22D60E085E10C94E22D9B0158
:10416000AC0160E074E284EF90E00E94352EDA0149
:10417000C9014097A109B109B695A795979587956B
:104180008093B80008954091A505262F30E0240FB4
:10419000311D21323105DCF42091F6052430C9F4BB
:1041A000FC0180E090E0861758F43091A50521913C
:1041B000DC01A955BA4FA30FB11D2C930196F3CF83
:1041C0008091A505680F6093A50580E0089581E0C2
:1041D000089582E008959093EA058093E905089593
:1041E0009093EC058093EB05089585EC8093BC00DB
:1041F0001092F6050895CF93DF9391E09093EE052A
:10420000882351F0C091B800D091BA009BDF7CDFC9
:10421000D093BA00C093B800DF91CF9108954F9228
:104220005F926F927F928F929F92AF92BF92CF9246
:10423000DF92EF92FF920F931F93CF93DF93F82EAD
:10424000162F072FC42FE22E413208F0BCC00E9467
:10425000862C4B015C01D091F605DD2329F180917C
:10426000EF059091F005A091F105B091F205892B31
:104270008A2B8B2B81F30E94862C4090EF05509067
:10428000F0056090F1057090F205DC01CB01881912
:104290009909AA09BB09481659066A067B06D8F689
:1042A0008091ED05A8DF8FC081E08093F605E09254
:1042B000F4059FEF909383051092C8059C0F90938F
:1042C000C7058093F5059091F5058F2D880F892BF3
:1042D0008093F5058091F305813089F51092F305FF
:1042E0000E94862C6B017C018091F5058093BB00B8
:1042F0008091EF059091F005A091F105B091F20544
:10430000892B8A2B8B2BA9F00E94862C8090EF059D
:104310009090F005A090F105B090F205DC01CB0182
:104320008C199D09AE09BF0988169906AA06BB0615
:1043300090F18091BC0083FDD7CF85EC01C085EE64
:104340008093BC000E94862C6B017C018091F60555
:10435000813029F58091EF059091F005A091F1054C
:10436000B091F205892B8A2B8B2B81F30E94862C2E
:104370008090EF059090F005A090F105B090F205C7
:10438000DC01CB018C199D09AE09BF09881699067D
:10439000AA06BB06D8F68091ED052DDF15C08091E9
:1043A000C8058C1710F4C091C805A9ECB5E0912F91
:1043B000E12FF02F8E2F891B8C1718F48D9181938C
:1043C000F9CFDC2F01C0D0E08D2FDF91CF911F916D
:1043D0000F91FF90EF90DF90CF90BF90AF909F90A4
:1043E0008F907F906F905F904F9008954F925F9263
:1043F0006F927F928F929F92AF92BF92CF92DF92F5
:10440000EF92FF920F931F93CF93DF93413208F007
:10441000C5C0122FF42ED72EE62ED82F0E94862C40
:104420004B015C01C091F605CC2311F18091EF05A1
:104430009091F005A091F105B091F205892B8A2B9E
:104440008B2B81F30E94862C4090EF055090F00555
:104450006090F1057090F205DC01CB018819990993
:10446000AA09BB09481659066A067B06D8F683C016
:1044700082E08093F6050093F4058FEF8093830527
:104480001092C805F092C7059E2DA9ECB5E0EE2D5F
:10449000FD2D8E2F891B8F1518F481918D93F9CFE7
:1044A0001092F5059091F505DD0FD92BD093F50508
:1044B0008091F305813089F51092F3050E94862CD6
:1044C0006B017C018091F5058093BB008091EF0525
:1044D0009091F005A091F105B091F205892B8A2BFE
:1044E0008B2BA9F00E94862C8090EF059090F00510
:1044F000A090F105B090F205DC01CB018C199D096B
:10450000AE09BF0988169906AA06BB06A0F18091DC
:10451000BC0083FDD7CF85EC01C085EE8093BC0045
:104520000E94862C6B017C01112351F18091F605CC
:10453000823031F58091EF059091F005A091F10561
:10454000B091F205892B8A2B8B2B71F30E94862C5C
:104550008090EF059090F005A090F105B090F205E5
:10456000DC01CB018C199D09AE09BF09881699069B
:10457000AA06BB06C8F68091ED053DDEC5E013C076
:10458000809183058F3F79F080918305803241F0DF
:1045900080918305803331F0C4E005C0C1E003C0E1
:1045A000C2E001C0C3E08C2FDF91CF911F910F912A
:1045B000FF90EF90DF90CF90BF90AF909F908F9043
:1045C0007F906F905F904F90089585ED8093BC0031
:1045D0008091EF059091F005A091F105B091F20561
:1045E0000796A11DB11D23E0B695A79597958795D0
:1045F0002A95D1F72091BC0024FF1BC04091EF0504
:104600005091F0056091F1057091F205452B462B14
:10461000472B81F30097A105B10541F025E32A95C9
:10462000F1F700000197A109B109E4CF8091ED05F0
:10463000E2CD1092F60508951F920F920FB60F92D9
:1046400011240BB60F922F933F934F935F936F9369
:104650007F938F939F93AF93BF93EF93FF9380913B
:10466000B900887F803609F49DC070F5883209F45E
:104670005CC090F4803109F455C038F4882309F403
:10468000F3C0883009F44EC0F2C0883109F44DC03F
:10469000803209F45EC0EBC0803409F469C050F484
:1046A000803309F456C0883309F0E1C08093830554
:1046B0009CDDDDC0803509F44FC0883509F45DC04C
:1046C000883409F0D4C0D2C0883909F4C3C0A8F432
:1046D000883709F467C038F4883609F463C0803736
:1046E00009F460C0C4C0883809F4B4C0803909F442
:1046F0005FC0803809F0BBC05BC0803B09F482C05A
:1047000038F4803A09F466C0883A09F47BC0AFC037
:10471000803C09F4A3C0883C09F4A0C0883B09F49C
:1047200086C0A5C08091F50510C09091C805809104
:10473000C705981770F5E091C80581E08E0F80934A
:10474000C805F0E0E753FA4F80818093BB0085EC09
:1047500082C0809383058AC0E091C80581E08E0FF6
:104760008093C8058091BB00F0E0E753FA4F808347
:104770009091C8058091C7056AC0E091C80581E0A5
:104780008E0F8093C8058091BB00F0E0E753FA4F8D
:1047900080838091F405811169C081E08093F305E5
:1047A00084EA5DC083E08093F60510928405CFCF44
:1047B00080918405803208F04DC0E091840581E04D
:1047C0008E0F809384058091BB00F0E0EB57FA4F89
:1047D0008083BDCF0ADD80918405803230F4E09182
:1047E0008405F0E0EB57FA4F10826091840570E089
:1047F000E091E905F091EA0585E895E019951092B8
:10480000840535C084E08093F6051092A6051092C9
:10481000A505E091EB05F091EC0519958091A505B2
:10482000811105C081E08093A5051092A705E09154
:10483000A60581E08E0F8093A605F0E0E955FA4FBA
:1048400080818093BB009091A6058091A505981763
:1048500008F47DCF85E88093BC0009C085EC809387
:10486000BC001092F60503C010928305AEDEFF91E6
:10487000EF91BF91AF919F918F917F916F915F91D8
:104880004F913F912F910F900BBE0F900FBE0F9045
:104890001F90189580912B0690E020912C06821B8A
:1048A0009109089590912C0680912B06981750F449
:1048B000E92FF0E0E35DF94F208130E09F5F9093B6
:1048C0002C0602C02FEF3FEFC9010895E0912C069E
:1048D00080912B06E81730F4F0E0E35DF94F80811A
:1048E00090E008958FEF9FEF08950895CF93DF93A1
:1048F000EC01E0910306F09104063097F1F09091FD
:104900002C0680912B069817C0F090E0292F30E0FC
:104910002617370754F4DE01A20FB31F4C91D901BB
:10492000A35DB94F4C939F5FF1CF10922C0660931B
:104930002B06CB01DF91CF911994DF91CF91089590
:10494000E0910506F0910606309729F010920906CD
:104950001092080619940895CF92DF92EF92FF9279
:104960000F931F93CF93DF937C01CB018A0120919A
:104970000706222389F0EB016B01C40ED51ECC156E
:10498000DD0561F06991D701ED91FC910190F08115
:10499000E02DC7011995F3CF642FF5DBC801DF9136
:1049A000CF911F910F91FF90EF90DF90CF900895DE
:1049B000CF93DF931F92CDB7DEB7698320910706AF
:1049C0002223D1F020910806203240F021E030E08F
:1049D000FC013383228380E090E014C080910906BB
:1049E000E82FF0E0E65FF94F998190838F5F809325
:1049F00009068093080604C061E0CE010196C3DB7E
:104A000081E090E00F90DF91CF910895FC01138237
:104A1000128288EE93E0A0E0B0E084839583A683C1
:104A2000B78383E894E091838083089510922C06E5
:104A300010922B06109209061092080665DB80EA98
:104A400094E2CEDB86E794E2C6CBCB01BA0187CBFA
:104A500081E08093070660932A061092090610925F
:104A600008060895F5CF0F93062F21E04091080620
:104A70006AE076E080912A06B9DC1092090610926D
:104A80000806109207060F9108954F925F926F9259
:104A90007F92AF92BF92CF92EF92FF920F931F93AC
:104AA000CF93DF935C01F62ED42F28013901EE203D
:104AB00011F1CEDFCE2DC43008F0C3E0C150C0F0FC
:104AC00028E0C29FC0011124A301920104C05695A1
:104AD0004795379527958A95D2F7CA01B901D5012F
:104AE000ED91FC910190F081E02DC5011995E6CF83
:104AF00060E0C501B8DF4D2FD13208F040E22C2D27
:104B00006DE276E08F2D8BDB10922C0680932B06C6
:104B1000DF91CF911F910F91FF90EF90CF90BF90B9
:104B2000AF907F906F905F904F900895CF92EF92EB
:104B30000F931F93C22EE12C00E010E09801A5DF37
:104B40001F910F91EF90CF90089521E0EFCF61E09A
:104B50008ACF87EF95E05ACF5058BB27AA270ED0AF
:104B600070C161D130F066D120F031F49F3F11F473
:104B70001EF456C10EF4E095E7FB4CC1E92F72D14B
:104B800080F3BA17620773078407950718F071F46A
:104B90009EF58AC10EF4E0950B2EBA2FA02D0B01C5
:104BA000B90190010C01CA01A0011124FF27591B72
:104BB00099F0593F50F4503E68F11A16F040A22F78
:104BC000232F342F4427585FF3CF469537952795E9
:104BD000A795F0405395C9F77EF41F16BA0B620BE8
:104BE000730B840BBAF09150A1F0FF0FBB1F661F2F
:104BF000771F881FC2F70EC0BA0F621F731F841F72
:104C000048F4879577956795B795F7959E3F08F097
:104C1000B3CF9395880F08F09927EE0F9795879556
:104C20000895D4D008F481E008950CD00AC102D1CF
:104C300040F0F9D030F021F45F3F19F0EBC0511192
:104C400034C1EEC00FD198F39923C9F35523B1F3C2
:104C5000951B550BBB27AA2762177307840738F0EB
:104C60009F5F5F4F220F331F441FAA1FA9F333D04A
:104C70000E2E3AF0E0E830D091505040E695001CFE
:104C8000CAF729D0FE2F27D0660F771F881FBB1FBA
:104C9000261737074807AB07B0E809F0BB0B802D94
:104CA000BF01FF2793585F4F2AF09E3F510568F0E0
:104CB000B1C0FBC05F3FECF3983EDCF3869577957F
:104CC0006795B795F7959F5FC9F7880F911D9695E2
:104CD000879597F90895E1E0660F771F881FBB1F3E
:104CE000621773078407BA0720F0621B730B840BEB
:104CF000BA0BEE1F88F7E0950895BCD088F09F5757
:104D000090F0B92F9927B751A0F0D1F0660F771F17
:104D1000881F991F1AF0BA95C9F712C0B13081F0F7
:104D2000C3D0B1E00895C0C0672F782F8827B85F3F
:104D300039F0B93FCCF3869577956795B395D9F758
:104D40003EF490958095709561957F4F8F4F9F4F62
:104D50000895E89409C097FB3EF49095809570956E
:104D600061957F4F8F4F9F4F9923A9F0F92F96E9B7
:104D7000BB279395F695879577956795B795F1112C
:104D8000F8CFFAF4BB0F11F460FF1BC06F5F7F4FC9
:104D90008F4F9F4F16C0882311F096E911C07723DB
:104DA00021F09EE8872F762F05C0662371F096E8E4
:104DB000862F70E060E02AF09A95660F771F881FB3
:104DC000DAF7880F9695879597F90895990F000857
:104DD000550FAA0BE0E8FEEF16161706E807F907CD
:104DE000C0F012161306E407F50798F0621B730B68
:104DF000840B950B39F40A2661F0232B242B252BE9
:104E000021F408950A2609F4A140A6958FEF811D8B
:104E1000811D089597F99F6780E870E060E008952C
:104E20009FEF80EC089500240A94161617061806C2
:104E30000906089500240A9412161306140605069E
:104E40000895092E0394000C11F4882352F0BB0F2F
:104E500040F4BF2B11F460FF04C06F5F7F4F8F4F92
:104E60009F4F089557FD9058440F551F59F05F3FCD
:104E700071F04795880F97FB991F61F09F3F79F07C
:104E800087950895121613061406551FF2CF4695FE
:104E9000F1DF08C0161617061806991FF1CF869580
:104EA0007105610508940895E894BB276627772764
:104EB000CB0197F908958ADF08F48FEF08950BD09E
:104EC000C0CFB1DF28F0B6DF18F0952309F0A2CFEC
:104ED000A7CF1124EACFC6DFA0F3959FD1F3950F9A
:104EE00050E0551F629FF001729FBB27F00DB11D6E
:104EF000639FAA27F00DB11DAA1F649F6627B00DFE
:104F0000A11D661F829F2227B00DA11D621F739FE6
:104F1000B00DA11D621F839FA00D611D221F749FF4
:104F20003327A00D611D231F849F600D211D822F3B
:104F3000762F6A2F11249F5750408AF0E1F0882382
:104F40004AF0EE0FFF1FBB1F661F771F881F91508F
:104F50005040A9F79E3F510570F05CCFA6CF5F3F50
:104F6000ECF3983EDCF3869577956795B795F795C2
:104F7000E7959F5FC1F7FE2B880F911D969587954A
:104F800097F9089511F40EF44BCF3EC073DFD0F3C0
:104F90009923D9F3CEF39F57550B87FF43D00024B5
:104FA000A0E640EA900180585695979528F4805CD9
:104FB000660F771F881F20F026173707480730F441
:104FC000621B730B840B202931294A2BA695179459
:104FD0000794202531254A2758F7660F771F881F29
:104FE00020F026173707480730F4620B730B840B49
:104FF000200D311D411DA09581F7B901842F9158D5
:10500000880F9695879508959F3F31F0915020F431
:10501000879577956795B795880F911D9695879594
:1050200097F9089591505040660F771F881FD2F767
:10503000089566D7FC01918D228D892F90E0805CC8
:105040009F4F821B91098F7399270895FC01918DC1
:10505000828D981731F0828DE80FF11D858D90E0DB
:1050600008958FEF9FEF0895FC01918D828D981721
:1050700061F0828DDF01A80FB11D5D968C91928D3C
:105080009F5F9F73928F90E008958FEF9FEF089539
:10509000FC01538D448D252F30E0842F90E0821B3E
:1050A000930B541710F0CF9608950197089584EE4E
:1050B00099E2892B39F080E090E0892B19F084D1B6
:1050C000811125C080E090E0892B41F080E090E0E4
:1050D000892B21F00E94000081111CC080E090E02B
:1050E000892B41F080E090E0892B21F00E940000A4
:1050F000811113C080E090E0892BA1F080E090E066
:10510000892B81F00E94000081110AC008950E943D
:105110000000D8CF0E940000E1CF0E940000EACF3B
:105120000C9400000895FC01848DDF01A80FB11DCF
:10513000A35ABF4F2C91848D90E001968F739927CD
:10514000848FA689B7892C93A089B1898C918370AB
:1051500080648C93938D848D981306C00288F389A4
:10516000E02D80818F7D80830895EF92FF920F93D1
:105170001F93CF93DF93EC0181E0888F9B8D8C8D03
:10518000981305C0E889F989808185FD25C0F62E30
:105190000B8D10E00F5F1F4F0F731127E02E8C8DCA
:1051A000E8120BC00FB607FCFACFE889F9898081B5
:1051B00085FFF5CFCE01B7DFF2CF8B8DFE01E80F73
:1051C000F11DE35AFF4FF0829FB7F8940B8FEA89E5
:1051D000FB89808180620AC09FB7F894EE89FF89BD
:1051E0006083E889F98980818370806480839FBFB0
:1051F00081E090E0DF91CF911F910F91FF90EF90B0
:105200000895CF93DF93EC01888D8823C1F0EA895C
:10521000FB89808185FD05C0A889B9898C9186FDAF
:105220000EC00FB607FCF5CF808185FFF2CFA889AD
:10523000B9898C9185FFEDCFCE0175DFE8CFDF9185
:10524000CF910895CF92DF92EF92FF921F93CF9369
:10525000DF93EC016A017B01122FE889F98982E072
:1052600080834115514E61057105A9F060E079E038
:105270008DE390E0A7019601F8D4DA01C901019706
:10528000A109B109B695A795979587959C01211518
:1052900080E13807A0F0E889F989108260E874E8B5
:1052A0008EE190E0A7019601E0D4DA01C9010197EF
:1052B000A109B109B695A795979587959C01EC85AD
:1052C000FD853083EE85FF852083188EEC89FD896E
:1052D0001083EA89FB89808180618083EA89FB8968
:1052E000808188608083EA89FB89808180688083EF
:1052F000EA89FB8980818F7D8083DF91CF911F9127
:10530000FF90EF90DF90CF9008951F920F920FB60D
:105310000F9211240BB60F922F938F939F93EF93BD
:10532000FF93E0915D06F0915E068081E091630657
:10533000F091640682FD12C09081809166068F5FB5
:105340008F7320916706821751F0E0916606F0E0B6
:10535000E35BF94F958F8093660601C08081FF91D2
:10536000EF919F918F912F910F900BBE0F900FBED9
:105370000F901F9018951F920F920FB60F92112445
:105380000BB60F922F933F934F935F936F937F933F
:105390008F939F93AF93BF93EF93FF938DE496E02A
:1053A000C2DEFF91EF91BF91AF919F918F917F915D
:1053B0006F915F914F913F912F910F900BBE0F9086
:1053C0000FBE0F901F9018958DE496E033DE21E01C
:1053D000892B09F420E0822F0895EDE4F6E0138292
:1053E000128288EE93E0A0E0B0E084839583A683E8
:1053F000B78385E994E09183808385EC90E095877D
:10540000848784EC90E09787868780EC90E0918B8E
:10541000808B81EC90E0938B828B82EC90E0958B7B
:10542000848B86EC90E0978B868B118E128E138E78
:10543000148E08950895D3D2FDDF0E940807C7E5B2
:10544000D8E20E9496072097E1F331DEFACFCF929F
:10545000DF92EF92FF920F931F93CF93DF936C0134
:105460007A018B01C0E0D0E0CE15DF0581F0D801D4
:105470006D918D01D601ED91FC910190F081E02DAF
:10548000C6011995892B11F02196EECF7E01C70137
:10549000DF91CF911F910F91FF90EF90DF90CF9010
:1054A00008956115710579F0FB0101900020E9F77D
:1054B0003197AF01461B570BDC01ED91FC91028047
:1054C000F381E02D199480E090E00895EF92FF922F
:1054D0000F931F93CF93DF938C017B01C0E0D0E04B
:1054E000F701EC0FFD1F6491662361F0D801ED9187
:1054F000FC910190F081E02DC8011995892B11F0E4
:105500002196EECFCE01DF91CF911F910F91FF90A9
:10551000EF900895C6CFDC01ED91FC910190F081F0
:10552000E02D199463EA74E0BCCF0F931F93CF93DF
:10553000DF93EC01CBDF8C01CE01F4DF800F911FF4
:10554000DF91CF911F910F9108950F931F93CF93E8
:10555000DF93EC01A6DF8C01CE01E4DF800F911F09
:10556000DF91CF911F910F9108958F929F92AF92EB
:10557000BF92EF92FF920F931F93CF93DF93CDB71C
:10558000DEB7A1970FB6F894DEBF0FBECDBF7C018A
:10559000FA01CB0119A2223008F42AE08E010F5D36
:1055A0001F4F822E912CA12CB12CBF01A50194017B
:1055B0005CD3F901CA01015011096A3010F4605D31
:1055C00001C0695CD8016C93232B242B252B69F730
:1055D000B801C70166DFA1960FB6F894DEBF0FBE13
:1055E000CDBFDF91CF911F910F91FF90EF90BF90B2
:1055F000AF909F908F9008952115310541F4DC0103
:10560000ED91FC910190F081E02D642F1994ADCFC4
:105610009A01AB0160E070E0EFCFCF92DF92EF92A2
:10562000FF920F931F93CF93DF932115310581F4E0
:10563000DC01ED91FC910190F081E02D642FDF9170
:10564000CF911F910F91FF90EF90DF90CF90199421
:105650002A303105F1F477FF1BC06A017B01EC01B0
:105660006DE259DF8C0144275527BA014C195D09B9
:105670006E097F092AE0CE0178DF800F911FDF914C
:10568000CF911F910F91FF90EF90DF90CF900895F1
:105690002AE0DF91CF911F910F91FF90EF90DF9063
:1056A000CF9063CF9A01AB01770F660B770BB5CF25
:1056B0000F931F93CF93DF93EC01F4DF8C01CE01A6
:1056C00031DF800F911FDF91CF911F910F910895CE
:1056D0007F928F929F92AF92BF92CF92DF92EF9282
:1056E000FF920F931F93CF93DF938C016A017B018D
:1056F000722E9A01AB01C701B60193D2882319F02B
:1057000066EA74E024C046015701E894B7F82FEF29
:105710003FEF4FE75FE7C501B40183D281110CC0B1
:105720002FEF3FEF4FE75FE7C501B4017ADA1816B4
:105730001CF46AEA74E00BC02FEF3FEF4FE75FE421
:10574000C701B601B8DB18168CF46EEA74E0C80124
:10575000DF91CF911F910F91FF90EF90DF90CF904D
:10576000BF90AF909F908F907F909BCE2FEF3FEF99
:105770004FE75FECC701B60154DA87FDE6CF20E0C2
:1057800030E0A901C701B6014CDA87FF09C06DE21C
:10579000C801C1DEEC01F7FAF094F7F8F09402C00A
:1057A000C0E0D0E0B12C60E070E080E09FE37B14CB
:1057B00039F020E030E040E251E437DAB394F7CF3B
:1057C000A7019601CAD96B017C0197DA4B015C01F4
:1057D0002AE0AB01BC01C801C8DEC80FD91F772081
:1057E00079F1C501B401B5DA9B01AC01C701B6017D
:1057F000B3D96B017C016EE2C8018DDEC80FD91FE1
:1058000020E030E040E251E4C701B60158DB4B0133
:105810005C0173DA6B017C014AE050E0C801F8DEFC
:10582000C80FD91FB60180E090E093DA9B01AC016C
:10583000C501B40191D96B017C017A947110E0CF5C
:10584000CE01DF91CF911F910F91FF90EF90DF90EC
:10585000CF90BF90AF909F908F907F90089538CF5A
:105860001F920F920FB60F9211242F933F938F9395
:105870009F93AF93BF938091EB069091EC06A0911C
:10588000ED06B091EE063091EA0623E0230F2D37A6
:1058900020F40196A11DB11D05C026E8230F029634
:1058A000A11DB11D2093EA068093EB069093EC06B0
:1058B000A093ED06B093EE068091EF069091F0066E
:1058C000A091F106B091F2060196A11DB11D809341
:1058D000EF069093F006A093F106B093F206BF9105
:1058E000AF919F918F913F912F910F900FBE0F908D
:1058F0001F9018952FB7F8946091EB067091EC0605
:105900008091ED069091EE062FBF08953FB7F89471
:105910008091EF069091F006A091F106B091F20609
:1059200026B5A89B05C02F3F19F00196A11DB11DFA
:105930003FBFBA2FA92F982F8827820F911DA11D35
:10594000B11DBC01CD0142E0660F771F881F991F72
:105950004A95D1F708958F929F92AF92BF92CF92BE
:10596000DF92EF92FF926B017C01D0DF4B015C0173
:10597000C114D104E104F104F1F052D1C7DFDC011C
:10598000CB0188199909AA09BB09883E9340A10552
:10599000B10570F321E0C21AD108E108F10888EEE0
:1059A000880E83E0981EA11CB11CC114D104E1042F
:1059B000F10421F7DDCFFF90EF90DF90CF90BF9003
:1059C000AF909F908F9008958230910538F0880FA6
:1059D000991F880F991F05970197F1F708957894FB
:1059E00084B5826084BD84B5816084BD85B58260E4
:1059F00085BD85B5816085BDEEE6F0E08081816082
:105A00008083E1E8F0E01082808182608083808181
:105A100081608083E0E8F0E0808181608083E1EB59
:105A2000F0E0808184608083E0EBF0E08081816041
:105A30008083E1E9F0E08081826080838081816001
:105A40008083E0E9F0E0808181608083E1EAF0E03A
:105A5000808182608083808181608083E0EAF0E0E1
:105A6000808181608083E1E2F1E0808182608083D7
:105A7000808181608083E0E2F1E0808181608083C9
:105A8000EAE7F0E0808184608083808182608083A7
:105A90008081816080838081806880831092C100D2
:105AA000089590E0FC013197E231F10508F04DC016
:105AB0008827E357FF4F8F4FFAC0809180008F7780
:105AC00003C0809180008F7D809380000895809135
:105AD0008000877FF9CF84B58F7702C084B58F7D32
